:020000040016E4
:1050000097710000938101DEEF10B04E970200000F
:10501000938242579382320073905230970200007D
:105020009382420E7390723091AB0000000000003A
:105030000000000000000000000000000000000070
:105040000000000000000000000000000000000060
:105050000000000000000000000000000000000050
:105060000000000000000000000000000000000040
:04557C0065230000A3
:1055800073900234F322203493D2F2016391020229
:10559000F3120034130181FC16CE1ACC1ECA2ADA8B
:1055A0002ED832D636D43AD23ED006C811A04111F8
:1055B00013038100F25293F212002322530022C0FF
:1055C0001754000013048408F322103416DEF3236A
:1055D00000301EC22800EF00A015F322203493D221
:1055E000F20163990204F32220348563FD13B3F2C0
:1055F00072002D43638962000A8597000000938042
:10560000A00A6F00F018F252910216DEF242638A8D
:1056100002000943639562005255C255BDA80D456D
:1056200011A052558A850244411122C426C60A8619
:105630006F007004032304009303130023207400FD
:10564000631703008A8203214400411116C07325A9
:1056500020348562FD1233755500EF00E00E97424D
:105660000000938222D60E05AA9203A5020003A38E
:105670004200E700030083230400FD13232074008D
:105680006392030202410C4441112EC01305000035
:10569000EF20704E8245410111C54D29175400007D
:1056A0001304C4FA2800EF006009F2529243739089
:1056B00012347390033002441303810083224300A9
:1056C0007253B36353001EDEF322203493D2F201EF
:1056D000639F0200F2426243D2435255C255325692
:1056E000A25612578257C2401301810311A04101F3
:1056F00073002030000000000000000000000000E7
:105700000000000000000000000000000000000099
:105710000000000000000000000000000000000089
:105720000000000000000000000000000000000079
:10573000F32270342320550082800000832205006C
:0A57400073907234828000008280B2
:10574C00C1676376F5029337051093C717008E0770
:10575C0037D70220930600029D8E3355F500930730
:10576C0047D3AA9703C507003385A6408280370725
:10577C000001C147E36EE5FCE147D9BFB307A04088
:10578C007D8DC1676373F5029337051093C71700BE
:10579C008E0737D702203355F500130747D32A97C6
:1057AC0003450700FD173E95828037070001C1476E
:1057BC00E361E5FEE147F1BF2A83AE8263920620E6
:1057CC002A8737D50220B287130545D363FEC50A55
:1057DC00C1666374D60A9336061093C616008E06FD
:1057EC00B353D6001E950345050093030002AA96F9
:1057FC003385D340638BD300B395A200B356D3004B
:10580C00B317A600D58D3317A30013D30701B3D359
:10581C00650213960701418293560701B3F56502A1
:10582C001E85B3027602C205CD8E63FC5600BE9671
:10583C001385F3FF63E7F60063F556001385E3FF6A
:10584C00BE96B3865640B3D5660242074183B3F683
:10585C0066023306B602C206558FAE86637BC7005E
:10586C003E979386F5FF6366F7006374C7009386D3
:10587C00E5FF4205558D81458280B7030001C14685
:10588C00E36076F6E146A9BF814609CAC166637D2D
:10589C00D6089336061093C616008E06B355D6005E
:1058AC002E9583450500AE96930500023385D540B1
:1058BC006393D5083386C240854513D30701B35390
:1058CC00660293960701C18213550701337666026F
:1058DC00B38276024206498E1E85637C56003E9644
:1058EC001385F3FF6367F600637556001385E3FFBA
:1058FC003E9633065640B3526602420741833376D6
:10590C006602B38656024206518F1686637BD70019
:10591C003E971386F2FF6366F7006374D700138615
:10592C00E2FF4205518D8280B7050001C146E36755
:10593C00B6F6E146A5B7B3D5D200B317A600B3921D
:10594C00A200B356D30033E6560093D20701B3D36B
:10595C0055023317A3001395070141819356060195
:10596C00B3F5550233037502C205CD8E9E8563FCDB
:10597C006600BE969385F3FF63E7F60063F5660059
:10598C009385E3FFBE96B386664033D35602420638
:10599C004182B3F6560233056502C206558E9A86CD
:1059AC00637CA6003E969306F3FF6367F60063756F
:1059BC00A6009306E3FF3E96C205098ED58DF5BD74
:1059CC0063E8D514C16763FFF60213B706101347DB
:1059DC0017000E07B7D70220B3D5E600938747D33D
:1059EC00AE9783C70700BA9713070002B305F740B9
:1059FC006311F702054563E056123336C3001345B5
:105A0C0016008280B70700014147E3E5F6FC6147C9
:105A1C00D1B73397B600B356F600D98E611133D790
:105A2C00F20022C213D4060126C0B3548702B392EB
:105A3C00B200B357F300B3E757009392060193D229
:105A4C0002013316B60033778702B3839202131523
:105A5C00070113D70701498F2685637C770036979A
:105A6C001385F4FF6367D700637577001385E4FF34
:105A7C00369733077740B3538702C207C183337716
:105A8C008702B38272024207D98F1E8763FC5700CC
:105A9C00B6971387F3FF63E7D70063F557001387B7
:105AAC00E3FFB69742054164598D9306F4FF3377B3
:105ABC00D500B3875740F18E935205014182B30351
:105ACC00D702B386D2023307C702B382C2023306AF
:105ADC00D70013D7030132976373D700A292935662
:105AEC000701969663E0D702639FD700C167FD1745
:105AFC007D8F4207B3F3F3003313B3001E97814538
:105B0C006374E3007D158145124482442101828037
:105B1C008145014582808280732540F18142630377
:105B2C00550011A817510000130101B4856293822E
:105B3C0002801691A52109A073005010F5BF00003A
:105B4C0023AA150280DDC4DD23A8250223A8B508ED
:105B5C00032105030322850983204503005D445D71
:105B6C0082808280B7D5022037D5022051119385CF
:105B7C0045E3130505E506C4EF302006A2400145B8
:105B8C003101828018458E05A167AA956366F700DE
:105B9C000A06B295884182800606B29503D50500A7
:105BAC00828018458E05A167AA956366F7000A06E0
:105BBC00B29594C182800606B2952390D50082805E
:105BCC005111054606C47D3FA240058131018280FA
:105BDC0018458E05A167AA95636AF700DC4109C6D2
:105BEC0093E71700DCC18280F99BEDBF83D72500BA
:105BFC0011C693E717002391F5008280F99BE5BF4E
:105C0C0093161600054671BF511106C41845A167BD
:105C1C00636FF700A147A1078D8385053385F54098
:105C2C000536A240FD473385A7403101828091475C
:105C3C00DDB7311122C626C406C81845AE842A84A5
:105C4C003AC0BD3F0247A167AA856365F700854747
:105C5C006307F50622854D3F93172500A297984BB5
:105C6C003AC015E758448546B396A600558F58C4DC
:105C7C00A6860946A68584CB22852537A6860D46A1
:105C8C00A68522853244C240A244510119BF8245E7
:105C9C0009462285C53DAA862AC20946A6852285C3
:105CAC00093782460D46A6852285E53D9245A68696
:105CBC000D462285FD358245A6860946D9B7C240D8
:105CCC003244A24451018280311106C822C626C436
:105CDC003707040091476363E600A1471D8E1384C8
:105CEC007500B2956198E199818D00C193D435000E
:105CFC0004C423260400A685228539379307550052
:105D0C008A07138777000D833AC07D570146634499
:105D1C00E500138607FF814513050401EF30805A17
:105D2C00024622858145E93D814622850146814511
:105D3C008D3D228505468145613D82478245228500
:105D4C00B387F4403E863EC2653D824622850146BD
:105D5C00B685813DA685228501465D359246A68590
:105D6C00228501463D3DA685228505469535228531
:105D7C0032448245C240A244510165BD0145828036
:105D8C00B7E7022083A7075E8287B7E7022023A02C
:105D9C00A75E8280011102C289472302F100B797E6
:105DAC0002202E869387C7D8AA850A8506CE02C004
:105DBC0002C602C83EC4EF20D075F2400561828055
:105DCC001301C1FD2EC80C0806C632CA36CC3ACE19
:105DDC003ED02EC0C137B240130141028280211146
:105DEC0022C806CA26C62A842EC032C436C2EF2068
:105DFC0000782320A20012460245A24502940325F6
:105E0C000200EF20900B82801DA999A182808280D4
:105E1C0037D502205111130545E606C45537A2406B
:105E2C0037D502201305C5E9310159BF6F308049C0
:105E3C0037D50220B7D702201306053D9387C766D6
:105E4C003386C74081451305053DCDB7511106C4B6
:105E5C00753F73005010653FA14773A00730A240F7
:105E6C0031018280130505048280311122C626C4BB
:105E7C0006C82AC02E84B284F3252034B7D702205A
:105E8C00D205D181138587EC2EC21D3F9245C146A8
:105E9C00B7D70220414763E3B6002E870A079387E2
:105EAC008714BA97904337D502201305C5EC093FE8
:105EBC00F325303437D50220130505EE113751C4C4
:105ECC00504C4C5837D50220130505EFD53D104CDE
:105EDC000C5837D50220130505F1DD3550484C54CC
:105EEC0037D50220130505F3E13D0C5437D50220BC
:105EFC00130505F5F1354C5037D50220130505F681
:105F0C00C1350C5037D50220130505F7553D37D553
:105F1C00022093050404130505F85D350C4837D5AC
:105F2C000220130505F9693D4C5C37D50220130599
:105F3C0005FA79354C4037D50220130505FB493558
:105F4C00B7D70220138587ECA53D95C08C4437D577
:105F5C000220130505FCAD35CC4437D502201305C2
:105F6C0005FDB93DB7D70220138587EC913DA68579
:105F7C002285CD2A0245A285EF10B047511101466A
:105F8C0006C4E5355111AA85014506C4C53F51111A
:105F9C0006C4F327203481450545CD37511106C47D
:105FAC00413DEF105062130606FC419A5CD68247C5
:105FBC0054DA18DA1CD68967938707885CC2B797BE
:105FCC0002209387A7DE5CDEB7870220232406001D
:105FDC0023260600232C06029387C76910D95CD9A7
:105FEC002328A50882801305A0F78280411126C2C0
:105FFC001307000093044000BA9422C433849540E4
:10600C00B7D502202AC0130600009385C5D222857D
:10601C0006C6EF30C029130700003305E400130651
:10602C0040008145EF30002A8247268523AC870843
:10603C00B2402244924441018280937735002A87F2
:10604C0089EF83A705080145636AF70083A6450815
:10605C00B697C19B3335F7008280014582801301CE
:10606C0081FD06D222D026CE2AC22EC432C636C01C
:10607C003AC8A9C23685FD330247AA87585FBE8449
:10608C00014401430246B245C2473ACC1ACA26859E
:10609C00829725C95243624763759306B7870220DE
:1060AC001386C774637CC702984813864400268302
:1060BC00B284C9BF3E8791CBB7D702209387876440
:1060CC009C47938707036318F700379702208A874A
:1060DC001307A7066DB71C43584355B737C60220A4
:1060EC001306062EE372C7FC224592472686BA8514
:1060FC00829701C90504A145984813864400E3180A
:10610C00B4FA92500254F24413018102828051116C
:10611C0006C4AE860C411387150018C137D5022072
:10612C001305C5187139A24005453101828093765B
:10613C0035002A8795E691C5B7D7022083A78764D7
:10614C0099CFB7D70220938707670145636BF70098
:10615C00856693860680B6973335F7008280F1BD4D
:10616C000145828021112AC237D502201305C51A98
:10617C0006CA2EC002C4A93137D602201306866483
:10618C008247924610463797022037950220130714
:10619C00A7132C001305A511D93537D502201305EB
:1061AC0085EC3939D24061018280B7D7022083A7B0
:1061BC000740511106C48297A240014531018280EB
:1061CC00511106C4DD37A240014531018280B7D799
:1061DC00022023A0A740B7E702209387874C03C770
:1061EC004700136727002382E7008280B7E502206F
:1061FC009385B560E1993706042037D502205111FB
:10620C00130585610D8E06C4C134A24001453101D0
:10621C008280B7E702203727A10723A2E75E01455A
:10622C008280F327007C370783AF7917F98F370704
:10623C007D500507D98F7390077C01458280B71775
:10624C0000F00A053E951C4193E707101CC18280A3
:10625C008D47014763E5B7009A051387F503B71718
:10626C0000F00A053E951C416207A207A183D98F55
:10627C001CC18280511106C422C237C502201305ED
:10628C000539EF109014B55711C937940220130536
:10629C00242B353F1305242BCD3C8147A2401244BF
:1062AC003E8531018280511122C226C006C4B7C47A
:1062BC00022029472A8493870439631AE5009847FA
:1062CC00B5451385043958430297938704399C4785
:1062DC00138504399375F40FDC438297A240228511
:1062EC0012448244310182805C410145DC43DC472D
:1062FC009CC182805C416D8E0145D8439347F6FF6B
:10630C00ED8F50C31CC782805C410145DC43CCC37C
:10631C0082805C410145DC438CC782805C41014535
:10632C00D8431C43AD8FB3F6F50093C7F7FFFD8D33
:10633C0054C30CC782801C49D84321C3631CB702C9
:10634C0098419447D8C36393D50098C723A0050000
:10635C0019C6D84398C19847CCC311E38CC70145E3
:10636C0082806399E500984198C29847E390E5FED6
:10637C0094C7E9BFBA8618436DF761FE2955828030
:10638C006F10E0211301C1FD06D022CE26CC444172
:10639C0093F7F50103C40401884416045D8C63086B
:1063AC00050EB70720006317F600A285EF10E01E5C
:1063BC00014565A802C4B70740002E836314F60894
:1063CC00B705000295476393B600914702CACC44C7
:1063DC003EC25C00B3D5650002C63EC885898844C0
:1063EC00D9E9B70740016318F6089377F4011356FF
:1063FC00540089469387070263EEC608B7D602207D
:10640C000A069386C61BB29694428A07B6979C439B
:10641C00858BB5E313063100A285EF00B074A95744
:10642C00630EF502930731003EC488447000A285C8
:10643C00EF001042634B050288440546A285EF101D
:10644C002003BDB7B70500068D47E381B6F8B70545
:10645C0000028547E39CB6F689478DBF88449305B7
:10646C003100EF00107EE35F05FA82507244E24483
:10647C0013014102828013063100A285EF00906E59
:10648C004DF5834531008844EF00707A79BF1305D0
:10649C00A0F7E1BF8A079C4302901301C1FC22D6EE
:1064AC0006D826D444412E831377F30183C5040107
:1064BC0032848D469605D98D1377060101E79356E4
:1064CC005600858A36C8137764301306601063094A
:1064DC00C70A6363E60219466306C70A6368E600E7
:1064EC000DCB09466307C702295569A01306001096
:1064FC00E31CC7FE054731A8130620206306C70816
:10650C00130600306304C70813060020E31EC7FC03
:10651C001147370508000546618D331666002DC9F5
:10652C00C84050C1884425ED93F7F5010946958183
:10653C00636CB60E37D602208A051306C61B2E9640
:10654C0010428A077D753E969357040183250608F1
:10655C0093C71700858B4580860705881305050FA3
:10656C00C18FE98DCD8F8A06D58F22075D8F2320B1
:10657C00E6080145C2503254A254130141038280F3
:10658C00254741BF214771B7194761B7154751B727
:10659C0037050400618D59D5C84010C561B7130685
:1065AC00F1003AC42EC2EF00F05BB70603002AC01C
:1065BC00E18E9245224781EE8844EF003067824796
:1065CC00CDFB8345F1008844EF0070665DB754083D
:1065DC0002CC02CE02D236D0884470083AC402CA29
:1065EC002EC2EF00F026E34605F8B7060200E18E56
:1065FC00924595C222474180134414003ACE42473B
:10660C00058822D03AD2884481467008EF00304089
:10661C00E35705FAB9BF180802D002D23ACE884423
:10662C007008EF00F022EDB7938707028A079C43AE
:10663C000290411106C622C426C293575500094741
:10664C00638BE70005476382E704A9C7B240224485
:10665C0092444101828037C40220130404371C4841
:10666C00CC43EDD584418547B397A700E5D1904540
:10667C007D8E11C6D84122853EC0029782470147C4
:10668C0091C09840A685BA84D5B737C402201304AC
:10669C000435F1B737C4022013040433C9B75111C0
:1066AC0006C422C24041084415CDEF00B0571DE985
:1066BC0008448145EF00B04EED5715E50844B795F9
:1066CC00022001469385E563EF007049014685453C
:1066DC001305A00DEFF06FF3014685451305C010AF
:1066EC00EFF0AFF28147A24012443E853101828027
:1066FC005C411CC28346850058418E06369763E484
:10670C00E7007955828003C757006304B700A107DF
:10671C00CDB701458280B7D702203111938747232B
:10672C003EC2B7D7022022C89387872237F4FCFFDA
:10673C0026C62EC081423EC41304040F82476394C4
:10674C00F2000145F9A81441A14513D7B6003D8BC1
:10675C0093F7F61F63E5E51A92450A07E1822E9737
:10676C009305F01F1843639DB700D947639CF60649
:10677C00FD572320F656850293F2F20F11057DBFCB
:10678C00D9456399B6022320F65683562500858A8F
:10679C008DEA93D55700894663E5B616B7D6022025
:1067AC008A0593868622AE968C428546B396F60071
:1067BC0094C5CDA063EBD50689456395B604232813
:1067CC00F66093D55700894663E0B614B7D602201D
:1067DC008A0593868622AE968C428546B396F60041
:1067EC00D4C14DA863E9D7008945FD57639CB60019
:1067FC002328F66049B7E545FD57639EB60223266C
:10680C00F65695BF894563E9D500D9E62322F66093
:10681C00FD56E398D7FA85B78D45638CB60C1305F6
:10682C00A0F74244B24451018280E5456395B6001D
:10683C002326F65699BFE54563EDD500DD45639DEE
:10684C00B60A2322F656FD551441E386B7F2C182EF
:10685C003DBF93058003E394B6FC13D357008945E1
:10686C0093F6F70163E5650AB7D502200A03938511
:10687C0085229A958C418A06AE9603A30608B70525
:10688C000090FD15B375B30037030040B3E5650008
:10689C0023A0B608854339A02326F660FD56814314
:1068AC00E38BD7EC03230500A1669E85B376D3005A
:1068BC0099C28545814393F6F7018944958363E832
:1068CC00F404A2448A078A06A6979C4313537300C8
:1068DC001373C300BE9683A7060822073367E30031
:1068EC00E18F5D8F336777008605D98D23A0B608BD
:1068FC0059B52324F6605DB72324F656A9B729555C
:10690C000DB723240000029023220000EDBF9386D4
:10691C0006028A069C42C5BF5C419C4383A70713B1
:10692C0082805C419C4303A5074823A0A748828032
:10693C0058411C4383A6C71491CE185F01450347E9
:10694C0007002380E50023A6071403A7C7140547F7
:10695C0098D782807D55828041110A8622C406C652
:10696C002A847933634805008247104083C5470069
:10697C0088435533B2402244410182801305A0F76D
:10698C00828051110146854522C22A84130540108C
:10699C0006C426C0EFF06FC713054010EFF0CFC64A
:1069AC0044408545C8444D3F5C40B70504009843BE
:1069BC00DC482322F7529450DC4CD58FD450D58F21
:1069CC009454D58FD454D58F9458D58F944CD58F4F
:1069DC002326F75654409C421386072018424D8FAD
:1069EC0018C213870750214610C3D45A1387077057
:1069FC0054DF23A007740547B8CB03A7071375DF33
:106A0C0023A007505C408145C847B93744408145B5
:106A1C00C84480409137A1472320F45083C7840099
:106A2C0089EF9C5C130704705CC385471CC7232645
:106A3C0004141307041078471CD4A2401244824457
:106A4C00014531018280311122C606C826C4444159
:106A5C002A842EC0EF10204411E537D702200347BB
:106A6C00E74109EF737704305040BA861042032691
:106A7C00061305EA218B73200730EDB71307400688
:106A8C0054403AC2944283A60613B1E605458524C8
:106A9C0012477D1775F7814513050002EF10702121
:106AAC00F1BFD8588247A18A2300F7005C40D85820
:106ABC009C431386077058DE054738C223A807127B
:106ACC0013860710105AB8CB73A00630C24032445C
:106ADC00A24451018280737704305040BA86104230
:106AEC00032606135DFE218B732007306DB701451D
:106AFC008280B7D6022003A7063F03A3463F338507
:106B0C00E540B3B2A500B3076640B3875740EE0724
:106B1C0015815D8D931755003E979352B501B33790
:106B2C00F70016939A9723AAF63EB7D7022023A80C
:106B3C00E63E23ACB73C23AEC73C8146B7D7022018
:106B4C00014723A4D73E23A6E73E6F105071511185
:106B5C001305200E0146854506C4EFF00FAB014529
:106B6C00EF00905C6342050637E502201305C55D16
:106B7C00EF003059634A0504EF00F0520199B7D782
:106B8C00022023A8A73E23AAB73EB7D7022023A8EA
:106B9C00A73C23AAB73C7D56B7D70220FD5623ACA1
:106BAC00C73C23AED73CB7E7022003C5C75DB7A5EA
:106BBC00022001469385E5AFEF007051B7D7022054
:106BCC00614723A6E7400145A24031018280511163
:106BDC0006C4EF00504DA24031018280511106C411
:106BEC00EF00704C37D702208327073F0327473F1E
:106BFC00A240B307F5403335F500998D898D37D711
:106C0C0002202326B73E2324F73EEE0513D557006A
:106C1C004D8D31018280711122C0B7D5022037D43D
:106C2C0002200327043E03A3853DAA86B7E7022072
:106C3C0003C5C75D139656008327443E631AE302CF
:106C4C0083A5C53D6396F502B705000463F2B60251
:106C5C00B28511E285452E97B336B700B69723203F
:106C6C00E43E2322F43E0244054611016F00F05C21
:106C7C00B7D50220B7D3022083A2053F03A3833EDE
:106C8C0083A5453F83A3C33E1693B33253009E9511
:106C9C0093D3F6419603ED82AE92B3E37600B3053F
:106CAC00660033B6C50096931E962320B43E23226D
:106CBC00C43E63E6C7006313F6026371B702330385
:106CCC00674033376700B3875740998F85466347D2
:106CDC00F00091E79307700C63F367008146024460
:106CEC0011016F00D04D8280AA87014582876F0009
:106CFC00B066411126C206C622C4AA848C4085C93E
:106D0C002E852EC07D44EFE0BFA3098C054682453D
:106D1C00331686001346F6FF6D8E2685EF10F06451
:106D2C0071DDB2402285224492444101828051544B
:106D3C00CDBF1C41B3D7B700858B95E7511126C049
:106D4C00854422C206C42A84B394B4000C4033E6B2
:106D5C0095002285EF10706175D9A24012448244CF
:106D6C0001453101828029558280B7D70220135703
:106D7C0055009387872EBA9783C707007D893E9568
:106D8C001375F50F8280511122C22A842E8506C4F8
:106D9C00E93F210506052A9403554400A2401244FC
:106DAC001581058931018280511122C22A842E85D8
:106DBC0006C4653F210506052A9403554400A240EC
:106DCC0012440581058931018280511122C22A8425
:106DDC002E8506C4593F210506052A940355440007
:106DEC00A2401244358131018280511122C226C049
:106DFC0006C4AA842E84413F1DCDA28526856D37FD
:106E0C001DE9A2852685D13798408547B397A70001
:106E1C002324F7300F0050059C400A05AA9703A7BE
:106E2C000751719B23A8E7500F005005A240124454
:106E3C008244310182800F00A00A09479377F40144
:106E4C0015806366870237D702200A041307C72D03
:106E5C00229718438A07B706FDFFBA9703A70708BE
:106E6C00FD16758F23A0E7080F00F00FC1B79387AD
:106E7C0007028A079C430290411122C42A842E8562
:106E8C0026C206C62EC0B284CD3593078500860770
:106E9C00A29783D7070093F6071091CA998393F7AB
:106EAC008707A2979443D0430245A68582961C443B
:106EBC0089CB504422440245B240A68592444101FC
:106ECC008287B2402244924441018280411137D7DB
:106EDC0002202EC0130707D35000AA879305C500C4
:106EEC008346070013D5360041050A95034505FF77
:106EFC009D8A3355D500058909E9910705071106C7
:106F0C00E390B7FE0145410182800F00A00AB7A6AD
:106F1C00105036C2B7860D509386062036C4B7067D
:106F2C0005509386064036C6144203A3060223A0DE
:106F3C00670023A066020F00F00F9443DDDEE1B77B
:106F4C00511122C22A842E8506C4053506052295C8
:106F5C008357450113F7071029C779771307F70FE4
:106F6C0093D59700F98FBD89231AF50013074401B7
:106F7C009306A4058357070013F6071009C6A583CB
:106F8C00BD8B6380F5020907E316D7FE9397350096
:106F9C00A29723A20700130504061244A240310154
:106FAC0049BBA240124431018280311122C62A848D
:106FBC002E8526C406C82EC04D3B93141500A294F2
:106FCC0083D74401858BB5CF82452285393D8245D7
:106FDC002285553B19CD1C40824522853EC2F53396
:106FEC0092470A05AA9723A8075023A807500F0019
:106FFC00500582452285A9378247239A0400894689
:10700C0013F7F701958363E0F604B7D60220938655
:10701C00C62D8A07B6979C430A07B7F6FCFF3E9726
:10702C00832707089386060FF58F93E72700232005
:10703C00F7080F0050050145C2403244A2445101EB
:10704C0082802955D5BF130707020A071C430290FB
:10705C00111122CA2A842E8526C82EC4B28406CCCD
:10706C0029339C402AC0A2453EC2ADC722852D3B88
:10707C00A24519C92285013BA24519C52955E240F3
:10708C005244C2447101828013D65500894613F7CD
:10709C00F50163E9C616B7D602200A069386C62DFB
:1070AC00B296944292470A07BA9603A606089843EA
:1070BC00419A0A07518F23A0E6080F00500582471A
:1070CC0093961700A29603D74601759B136717007A
:1070DC00239AE600D84005CB10435443228532C690
:1070EC0036C42EC2D1319245A24632460DC1D9F6D4
:1070FC0082470A0693961700A29603D746010D9B6A
:10710C00518F239AE600984455E701458DBF82477D
:10711C0089631383F3FD13951700229503574501DB
:10712C0033776700231AE500E1D60D47E368C7F40F
:10713C00D840584303430700184093122300169776
:10714C0001EA23280750232807500F0050054DB79C
:10715C0083260751F19A2328D7500F00500514406D
:10716C00C113969693860650984AB7E2FCFFBD026F
:10717C003377570098CA83A20601139745003377DB
:10718C00770093130601336777003367570098CA6B
:10719C000F00500513070303060722972312B700AD
:1071AC000357450136033367670013670702231A39
:1071BC00E5003DBF04435C4322853EC25133B1D44C
:1071CC0058406388E400130504062536635805000F
:1071DC007DB518449247E398E7FE01459247131793
:1071EC00350022971CC7824744C31375F50F8607D9
:1071FC003E94835744012605C98F93E70710231A41
:10720C00F40021B7130707020A071C43029021114F
:10721C0022C82A842E8526C632C406CA2EC0B6843D
:10722C00A93622462AC251CA82452285B53E22463B
:10723C0001ED82452285813E224619C52955D24051
:10724C004244B244610182809247139717002297FF
:10725C008357470189839D8B89C754428547E38FA8
:10726C00F6FC8246824793D556008946FD8B63E334
:10727C00B60EB7D602208A059386C62DAE969442DA
:10728C008A070846BE965C4283A506080A0586074F
:10729C001042C98F7D751305050FE98DCD8F220620
:1072AC00D18F93E7170023A0F6080F0050058357E2
:1072BC00470193E73700231AF70099E0014541B7DE
:1072CC0082452285EFF05FAE35D903C604001C4021
:1072DC0013152600AA9723A8075023A807500F00C0
:1072EC005005924709631307F3FD93961700A29676
:1072FC0083D74601F98F239AF600DC40E1D30C408A
:10730C009844B7E2ECFFAA95938505508849BD02D5
:10731C00C20733755500B7020300B3F75700520785
:10732C00B702100033775700D98F024788C98849B4
:10733C004113120733776700D98FC98F9CC90F008F
:10734C00500583D746013606D18F93E70702239A5F
:10735C00F600ADB7938707028A079C4302904CC591
:10736C0010C98280411122C426C206C62A842EC0AE
:10737C00B284EFF05FA115C10245EFF01F9F21050C
:10738C0006052A94835744000145B5832380F400F5
:10739C00B24022449244410182802955D5BF41110B
:1073AC0006C622C426C20347850764593AC0A5E81D
:1073BC002A841306600481455105EF10B070024712
:1073CC00B7D702209387872F0E07BA9708409443AC
:1073DC004546639796029307451423A007009C43E8
:1073EC0031811375F51FEFE03FA20F005005854763
:1073FC007CD83CD00145B240224492444101828069
:10740C0093F7F40F8A071387071089836397C700D4
:10741C00B307E50023A007009C4385045DBF13055B
:10742C0080F8D1BF68593335A0008280BDBE834738
:10743C00850737E502201305855E8A073E956FF0B8
:10744C005F8F511122C206C48347850737E502209E
:10745C001305855E8A073E952E84EFF09F89634560
:10746C0005002300A4000145A24012443101828092
:10747C00311122C626C406C8AA842E8432C2EFF06B
:10748C009F909C403EC031CDA2852685EFF0DF91C8
:10749C0029E9A2852685EFF05F9382479316250094
:1074AC00138706103E972320070018430F00500542
:1074BC00984036978326075193E616002328D75019
:1074CC000F005005924789CB98408547B397A7008A
:1074DC002322F7300F005005C2403244A244510120
:1074EC0082800F00F00F824703A747300F00A00ADD
:1074FC00B7060200758F11E798402322D7300F0092
:10750C0050052285EFF07F862105060526958357C9
:10751C0045001377F401B7D60220898315809D8B23
:10752C0091459386C62D131624006388B7049545A0
:10753C006380B7060F00A00A894763ED8704B38701
:10754C00C6009C43DC470F00A00AB3D7E700858B2D
:10755C0089070F00A00AB296131627009842C2079B
:10756C003297832607083706FDFF7D16F18ED58FDF
:10757C002320F7080F00F00F85B78D470F00A00AE6
:10758C008945E3FA85FC130707020A071C4329A067
:10759C008947EDB78327C00002906FF01F855D719E
:1075AC0086C6A2C4A6C29307450004413EC48347C5
:1075BC00850703A744302AC23EC8C246B70702005B
:1075CC0037D502201377F70F5D8F1396360093078C
:1075DC00852FB2978C430F00A00A9307852F014487
:1075EC0081463EC60545639FD50A83A7441489CBC3
:1075FC009387441423A007009C43B70702005D8CBB
:10760C000F005005B7070200E18FD1C7B247281809
:10761C0032C0B297CC4302DC02DE82C0EFF01F8B8B
:10762C000246930746003ECEB7D70220938707D376
:10763C003ED002C002578247F246BA9703C70700F2
:10764C0093573700B697B2461D8BB69783C7070082
:10765C00B3D7E700858BBDEF824785073EC0024755
:10766C008D47E319F7FC0F00A00A83A7441491C7B8
:10767C009387441423A007009C430F005005C24776
:10768C00324728188E07BA97CC43EFF03F8455F158
:10769C008177FD177D8C6314041CB64026449644F8
:1076AC006161828093F7F60F8A0713830710898331
:1076BC00B317F500B372F700638C02002693832294
:1076CC0003006387020023200300032303005D8C67
:1076DC00850611BF82478A07938787038A973ECA1C
:1076EC00D247884335D9EFE06F898246B7D702205D
:1076FC00938707D3B69783C507002AD29605C98D01
:10770C002E852ECCEFF06FE6124793078500860787
:10771C00BA97125783D64700D24713563700054500
:10772C003E96937777003315F50083470600134593
:10773C00F5FF7D8D2300A6000F00F00FE2450945F3
:10774C0013D3550013F7F501636A6514B7D0022003
:10775C0093D326009387C02D93162300B69794439A
:10776C00930207028A02B69283A7020013F67300F3
:10777C00C1838D8B0F00A00A9380C02D93F343001F
:10778C0006CC638C0306224516DA3ED836D61AD4BC
:10779C003AD2EFF06FEE0F00F00FD25203A60200B8
:1077AC000F00A00AC25741820D8A12572253B256BB
:1077BC00639AC7020F00A00A13162700B29693868D
:1077CC0006088C423706FDFF7D16F18D8CC20F002A
:1077DC00F00F0F00A00A8C42C2076D8ED18F9CC295
:1077EC000F00F00FE2470A039A9794438547B3972B
:1077FC00E7009CD20F005005E5B58D466383A700CA
:10780C0089460F00A00AE24213152300B703FDFFBF
:10781C001695084193122700FD131695832205082F
:10782C00C206B3F27200B3E656002320D5080F004F
:10783C00F00F0D456308A6008946639DD700854768
:10784C00E312F6FA22451AD43AD2EFF0EFE22253C1
:10785C00125749BFE398A7F8E316D6F8E5B7228587
:10786C00EFD0DFF18547B397A700124793C7F7FF17
:10787C007D8C930705038607BA9783D547000F00C5
:10788C00F00F130545140A05269510410F00A00AA8
:10789C00224541820D8AEFF02FDEF5BB130707025C
:1078AC000A071C430290F377043037270E50B706B3
:1078BC000040032507720F00A00A832547720F00B2
:1078CC00A00AE3F8D5FEA18B73A007308280B7E73E
:1078DC000220938707473387A70003470703B14666
:1078EC003307D702BA97CCC790CB238AA70085471A
:1078FC00B397A70037270E502322F7300F005005FF
:10790C008280511122C22A8437E502201305454793
:10791C0006C4EFF00FBE634505002300A40001452B
:10792C00A240124431018280511122C237E402205C
:10793C0006C4930704479C43130580F8ADEF13046A
:10794C00044795470147E14613F616003297FD1799
:10795C001377F70F8582EDFB8946130540F7631CFF
:10796C00D7040D47230AE40011472300E402B7268D
:10797C000E500547A3090402230AE40285459386A9
:10798C0006101306000313D727003397E500618B0D
:10799C0009C73387D700232007009107E395C7FE5B
:1079AC000F0050051305200EEFE00FC60F00500519
:1079BC0085471CC00145A240124431018280B7E7C3
:1079CC00022041119387074722C426C206C633877B
:1079DC00A70003470703B2842E8421070E07BA972A
:1079EC00D0C38CC337270E5093174500BA97320675
:1079FC00318223A0B75223A2C7528DCA0F00500563
:107A0C000F00A00A0A0513050510B307A700984339
:107A1C000F00A00A11CF3EC07935824763E695006E
:107A2C006398B4006376850023A007000F0050050F
:107A3C00B2402244924441018280B7E702209387EE
:107A4C0007473387A70003470703130525051205CE
:107A5C0021070E07BA97984303A347007E06B30687
:107A6C00B70033B7E6001A97860594C3D8C385814F
:107A7C00B7270E504D8EAA9790C70F0050058280E5
:107A8C00211106CA22C826C60F00A00AB7270E501D
:107A9C0003A4C7300F00A00AB7E4022011E4D240BF
:107AAC004244B244610182802285EFD03FCD1386DF
:107ABC000447B307A60083C207038545B395A50009
:107ACC00931725002AC431453385A20293C5F5FFCF
:107ADC0093870710B7260E5016C26D8CB6972A9650
:107AEC00504635C63EC037E502201305054CEF1055
:107AFC0060092247B7E6022082473355E500058925
:107B0C009242138306470DCD0F00F00FB7260E508F
:107B1C0013164700B29603A6465283A506520F00D1
:107B2C00A00A9443A5DE23A00700B147B382F2025A
:107B3C003A8516938327C300832603018297B9BF26
:107B4C00938682008E069A968C42D042D9BF984377
:107B5C0031D723A0070099B705C5511122C226C001
:107B6C0006C42A84EFF0AF86AA84EFF04F86B307E1
:107B7C009540E3EC87FEA24012448244310182809E
:107B8C008280511122C206C45C492A8499EF0145B6
:107B9C0058443305A0408347170093E71700A30010
:107BAC00F700A24012443101828082976DD1935725
:107BBC00F5413D8D1D8D9307F00F63D4A700130580
:107BCC00F00F5C442380A700E1B701CD5845014577
:107BDC0083471700858B99C703450700133515009C
:107BEC00828001458280F377043001A0511106C4D4
:107BFC00DD3F511106C422C226C073740430B7D7BE
:107C0C0002209387876484472188CD377320043002
:107C1C001244A2402685824431016F00102A1317AA
:107C2C002500B7D702200505938787310A05511126
:107C3C003E97AA9722C226C00043844306C46367BA
:107C4C009400A2401244824431018280484001C910
:107C5C008347C501858B91E32D372104CDB71C409B
:107C6C008297E5BF0111B7D7022005470D4506CE17
:107C7C00238FE74022CC26CA5D37EFE06F99114580
:107C8C0037D40220693FB7D40220130384CB9384EA
:107C9C0084CB130484CB636693021D2D6365940619
:107CAC00812DEFD03FECB7D702209387074C03C749
:107CBC00C700799B2386E700F2406244D2440561F9
:107CCC008280832743021AC83EC6832703023EC420
:107CDC008327C3013EC2832783013EC08327430110
:107CEC00032703018326C300032683008325430057
:107CFC0003250300452A42438327030023A067047E
:107D0C001303030349BF10547D5754546314E60006
:107D1C006388C6003367D600084011E7EF00F00017
:107D2C0013040403A5BFB7B702209385072661058A
:107D3C00EF009037F5B71303000A01113303650206
:107D4C0026CAD144B7D7022093870742B7E5022051
:107D5C0022CCB7B602202A84938505E7B30495029A
:107D6C003E93B7D7022093878764260502C0AA9555
:107D7C00938646E91A8513060020BE94B7D70220D5
:107D8C00938787303EC685473EC4BD473EC2268793
:107D9C00814706CE1AC83922424323888400050441
:107DAC008347D3002E0423A66400ED9BA306F300A7
:107DBC00B7D70220938707673E94C0C0F240624455
:107DCC00D244056182800111014506CE22CC26CA1F
:107DDC00B935014237D50220130505565D220545FC
:107DEC003D3D09452D3D712BB7D7022093870731B7
:107DFC0037D402203EC637D302208547B7B60220BF
:107E0C00B7E50220130383649304044C0147938663
:107E1C0006C713060040938505073EC402C202C084
:107E2C0081471305044C232A9300AD2883C7D40043
:107E3C001305044CED9BA386F400D1260145E53DCA
:107E4C00F3740430B7D7022013838764832583002F
:107E5C00D55723A6F5082EC8F37704300923C2455D
:107E6C006381A502B7D70220138387642A84232455
:107E7C00A300EF00B00B03250409C245894273002F
:107E8C000000A18873A00430511106C4F3770430AC
:107E9C00EFD0DFFBE5BFB7D7022003A587643335EE
:107EAC00A00082801301C1FD06D022CE26CC3EC894
:107EBC00930745047CC13CC5B2571304F6004198A6
:107ECC002306F5009147A306F500A257AE822324A2
:107EDC000500A2952307F500A3070500232C050038
:107EEC00232E0500AA8436C43AC616CA2EC2EFE069
:107EFC00EF8F9245D2423D0593870408419923A008
:107F0C005700C0C388C7B387A5403EC292573247BB
:107F1C00A2463EC01246C24796852685EFE0AF8842
:107F2C00A24723A00404FCC4B247BCC8C247FCC887
:107F3C009257BCCC73770430B7D7022093868764F2
:107F4C009052218B84D2F0CC732007301384876439
:107F5C00C2578DC77D46BE8513850406EF00F043DE
:107F6C00A38F04061C44124583A7470923AAF408CF
:107F7C0082507244E2441301410282802380040641
:107F8C00D5B7930710102316F500B7D7022023207E
:107F9C00050823220508232A050823A8A764828044
:107FAC0058411C411CC3D8C32320050023220500C3
:107FBC008280511122C206C42A84DD378347D40043
:107FCC0023240400F59BA306F400A24012443101C3
:107FDC0082808347D500139787016187634D07081B
:107FEC0013F7F70149EB511122C206C426C093E7DF
:107FFC0007F837D40220A306F500930784649C4F3E
:10800C0037D702201304846413070766544C639A11
:10801C00E70018C154C188C248CC15A0E38BF6FE0A
:10802C009C43E5DB0306E5008385E700E308B6FE29
:10803C00E356B6FED4431CC154C188C2C8C3044C19
:10804C006383E40091E044441C4403C7D7007D8B58
:10805C0009EF83D6E7001307F0076378D7005CC8F5
:10806C00A2401244824431018280638497002685A9
:10807C00752D44C8F5B78280411106C622C426C2AC
:10808C008347D5002A8793968701E18663D906003A
:10809C0093F7F707A306F5002AC019370247B7D4A0
:1080AC00022093868464804E9C46B7D60220938629
:1080BC000666938484646303D40011E0C044638C2B
:1080CC00E70003C7D7007D8B19E783D6E7001307BA
:1080DC00F0076367D700638487002285812DA28710
:1080EC00DCC8B2402244924441018280311122C644
:1080FC0037D4022026C49307846406C8AE848C4708
:10810C00D5571304846423A6F508B7D702209387A8
:10811C00C7666384A700F377043048482EC2638C8B
:10812C00A50008C42AC01925024592458942032599
:10813C00050973000000A18873A004301C44C240E0
:10814C00324403A5C708A24451018280411122C4C4
:10815C0006C626C28347D5002A84139787016187F8
:10816C006357070093F7F707A306F500153D834700
:10817C00D400B7D4022037D7022093E707F8A30620
:10818C00F400938784649C4F93848464130707667C
:10819C00D44C639AE70018C054C080C2C0CC15A060
:1081AC00E38BF6FE9C43E5DB0306E4008385E700E6
:1081BC00E308B6FEE356B6FED4431CC054C080C2DE
:1081CC00C0C3884C9C446303E50011E1C844638C34
:1081DC00870003C7D7007D8B19E783D6E700130709
:1081EC00F0076368D7006385A7002AC08123024586
:1081FC00AA87DCC8B24022449244410182805111CA
:10820C0006C422C273740430E9332188732004300D
:10821C00A240124431018280511106C422C226C0F0
:10822C00F37404308347D50093F7870281EF1C4524
:10823C002A8491C3BD3B8347D4002285ED9BA306C2
:10824C00F400413BA18873A00430A2401244824444
:10825C003101828085452115C1B713F7850001CF07
:10826C00B7D7022093878764944391E6D44B9C47FD
:10827C006383F600A5BD732007308280411122C4B0
:10828C0006C626C2137485000DCCB7D7022093877F
:10829C00876498431DE78C47D84B6304B702555746
:1082AC0023A6E50873770430C44B2EC0638B95006E
:1082BC00268584C7A52903A5040982458942730034
:1082CC00000073200430B240224492444101828069
:1082DC00F377043037D7022013078764144703C79A
:1082EC00F6007D17A387E600A18B73A00730828070
:1082FC00411106C622C426C273770430B7D40220BB
:10830C00138684641C469384846483C6F7008506B4
:10831C00A387D700004EB7D6022093860666630368
:10832C00D40011E0C04483C6D700FD8A99E603D679
:10833C00E7009306F00763E9C60063868700228591
:10834C003AC0ED260247A287DCC8218B7320073088
:10835C00737504302244B2409244410105B7B7D73B
:10836C00022093878764C84B8280B7D702209387FB
:10837C0087649447D84B23A8A6080325070998C7F8
:10838C008280B7D7022037D70220938787641307E0
:10839C00076698CFD8CF8280411106C622C426C268
:1083AC00F375043037D40220930784649447D04F7C
:1083BC00130484649C423E876393C6000147D442F5
:1083CC009CC2D4C31C44544C11EB37D70220130766
:1083DC00076698C3D4C39CC25CCC31A80386E70063
:1083EC000305E7006303A6046351A604544398C332
:1083FC00D4C39CC25CC3044CB7D7022093870766D6
:10840C006383F40091E044441C446386F4002685A5
:10841C002EC0292E824544C82244B240924437D5FE
:10842C0002201305C5664101D1B1E380E6FA184379
:10843C0061BF211106CA22C826C6B367B50081E701
:10844C00A13F014595A02EC42AC2F37704303EC04B
:10845C00B7D70220938487648844EFF0FFC1884427
:10846C001246A246B7B502209385052661052D2933
:10847C00944482452A8403C7D60037D502201305BD
:10848C00C56613674700A386E600EFF03FC69C4421
:10849C00985745FBD857B7070080E314F7FAC12566
:1084AC003305A440E34F05F8D2404244B244610185
:1084BC008280511122C226C006C42A84AE84953F04
:1084CC007D57AA876315E40022856385840413070E
:1084DC00803EB385E702B397E7022167130717A124
:1084EC003385E500B335B500BE9599E16379A702F4
:1084FC009167938787D063E6B7026397F500E177BE
:10850C009387D75E63EFA7002166130626A18146E9
:10851C00EFD08FAAA24012448244310182800145DF
:10852C00D5BF370500807D15F5B7F375043083474B
:10853C00D500918B8DCB411122C42A84610506C6CE
:10854C002EC0C9298347D4002285ED9BA306F400D5
:10855C00EFF03FA822448245B24037D502201305E4
:10856C00C5664101DDB9A18973A005308280B7D7FA
:10857C0002209387876488478280111106CC22CA17
:10858C0026C88347C5003EC4F37704303EC08347FA
:10859C00D50013F7870019CB824793F4870073A09B
:1085AC000430E2405244C2447101828013E78700D8
:1085BC0093168701E1862A8463C7060AA306E500A1
:1085CC001C4481C72285EFF0DF9E1305840199219D
:1085DC0064401307440463039700D9ECB7D7022017
:1085EC0013878764144702C2938487646316D4008C
:1085FC009840B337E0003EC2884C37D702201307AF
:10860C0007666303E50011E1C8446385A6002AC62A
:10861C00312A3245C8C82285EFD0FF9C2285D12251
:10862C00924791CB984437D5022013050556232841
:10863C00E708EFF01F959844631BE4069C40A5EBFC
:10864C008347C400858BA1EB824537D502201305E7
:10865C00C566EFF0BFA9A247858BA1D71145814212
:10866C00730000003DBF93F7F70793E78700A3065D
:10867C00F500EFF0FF92A9B726853AC2EFF07F9391
:10868C0013858401412E268523A60408EFF07F94E0
:10869C001247644089B7824793F4870073A0043073
:1086AC001145814273000000F375043079BF824795
:1086BC0093F4870073A0043079BFC1B5B7D70220FB
:1086CC0093870760B307F54037B7AAAA1307B7AA71
:1086DC008D87B387E70237D7022013070741BA9774
:1086EC0005472380E70082800357E5009307F007D6
:1086FC0063ECE70283A701818DC7B7D7022003A7DC
:10870C0047418306E500814763CDE6000347D5006A
:10871C007D8B01EBB7D70220938707421D8DB337B2
:10872C00A00013F5170082808147E5BF4111B7D730
:10873C00022026C283C4876522C461443384840228
:10874C0037D70220130707602AC006C63A94228541
:10875C00D12437D70220024513070741B387E40021
:10876C0023800700513705C103A6018122852244CD
:10877C00B24092447D16B7B502209356F6419385CC
:10878C00856C410115A2B240224492444101828081
:10879C00511106C422C226C0F3740430B7D702208C
:1087AC009387876403C70701B7D6022093860641D7
:1087BC0036970347070011CF80472285353711C9FB
:1087CC008347D400FD8B81E72285EFF03F9822850B
:1087DC00B13FA18873A00430A240124482443101FD
:1087EC008280F376043037D70220130787641C533A
:1087FC006399A700FC4F1CD3A18A73A0063082801A
:10880C00BA87FDDBF84FE31DA7FE784DF8CFEDB727
:10881C009387418188436313F50001458280511190
:10882C0022C206C42A84ED371DC518495C499356EB
:10883C00F441330587403337A700958F998F634CEC
:10884C00F00099E36349050063D307000145A2409A
:10885C00124431018280370500807D15CDBFB7D71A
:10886C00022083A7874199E36FE04FB701458280CF
:10887C001DC193874181DC43630FF500184101CF83
:10888C001C4B14494C49504BBE96B3B7F6002E9670
:10889C00B29714CB5CCB58411C411CC3D8C32320CA
:1088AC000500232205008280111122CA26C83683B6
:1088BC00368406CCFD56AA87B2846314D6006308AE
:1088CC00C3148CC7F376043036C2B7D20220634B84
:1088DC0004061AC632C43EC0593722463243B7D2B8
:1088EC0002209306160033B6C6003384A6001A96EF
:1088FC009355F541B336D4002E9683A4823F82471C
:10890C00B29603A6C23FA29480CBD4CB33B48400DE
:10891C00B296369485462A8736C03EC63AC4CD3DBB
:10892C009386418183A346002247B24793824181BB
:10893C0039E523A0570023A2770023A0F30023A23C
:10894C00F2008DA883A5823F83A6C23F7955B3055B
:10895C00B5403335B50093C6F6FF898E3386C540D6
:10896C00B3B5C500B38666408D8E6346D00091E2E8
:10897C0019E20546814690CBD4CB02C079BF0323C4
:10898C004501CC4B1449904B63C665006314B30688
:10899C006372D6063386C640B3B6C6003303B34003
:1089AC003303D340544110C9232A6500D4C388C370
:1089BC009CC25CC13EC63AC4A13DB2476391A702BA
:1089CC00B7D7022083A7874199EB8247224799E3C7
:1089DC0079352A873A85A1358145EFE0CFA39247B7
:1089EC00A18B73A00730E240A28552442685C24475
:1089FC0071018280B306D6403336D600B38565400C
:108A0C00918D94CBCCCBE30675F2084115B781441C
:108A1C000144D1BF411106C622C426C2F3740430EE
:108A2C001C4185CF2A84ED332AC02285913582479B
:108A3C000146B706008010C854C8639787000535F7
:108A4C00F93B8145EFE02F9D0145A18873A00430CF
:108A5C00B24022449244410182802955FDB7411114
:108A6C0006C622C426C273740430B7D5022023ACC8
:108A7C00A540793BB7D5022083A7854137D6022084
:108A8C000327863F8322C63F218813D3F7411DC19C
:108A9C00544904496346D3006397660463F597040D
:108AAC00B383F440B3B47400B3866640858E232838
:108ABC00750054C93E97B337F70016939A97014542
:108ACC00232CE63E232EF63E23AC0540EFF03FD59B
:108ADC008145EFE04F94732004302244B24092441D
:108AEC0041016FF0FFCA269793D6F441B337970034
:108AFC009696B697232CE63E232EF63E01478147E9
:108B0C0018C95CC92AC0AD337320043002451C451A
:108B1C00829773740430B7D5022083A78541858F63
:108B2C0023ACF540B9B7511106C422C2737404309A
:108B3C00EFF0FFD237D70220AA859357F5410325D2
:108B4C00873F0327C73F21882E95B335B500BA97C9
:108B5C00BE9573200430A240124431018280511121
:108B6C0006C4D137A24031018280F377043018411A
:108B7C006318B70010C10545A18B73A00730828024
:108B8C000145DDBFAA87737704300841E98D8CC39A
:108B9C009377870073A007308280511122C206C4DC
:108BAC002A8409CA83C7050085050505A30FF5FEB0
:108BBC007D16E5FB81453927A240228512443101FF
:108BCC008280AA95AA876385B70003C7070001E7CF
:108BDC003385A74082808507FDB71301C1FD3ED0C8
:108BEC00B7D702202EC8AA8503A5C7D232CA10084F
:108BFC0006C636CC3ACE32C0292AB2401301410205
:108C0C00828013077003158F51111377F70F22C44D
:108C1C00AA8726C23AC0FD8A3285C143A5421544B3
:108C2C00214613F7F70F6387C60A6387760C1396F2
:108C3C00F50113D317009394E50189833363660020
:108C4C00C58F9A9713D6150089812E9633B367007A
:108C5C0032931316C30193D54700D18DBE9513568D
:108C6C0043003293B3B7F5009A971396870113D349
:108C7C008500336366002E9313D68700B297B33505
:108C8C00B300BE9593970501135603015D8E1A969A
:108C9C0093D70501BE95333366002E93B307660058
:108CAC00B3B5C7009A951396D5018D83D18F3386B2
:108CBC0087028D810606118F1377F70F63F2E2029C
:108CCC00138617003333F6005917B2879A9513772A
:108CDC00F70F0DA81396D5018D831D8BD18F8D8128
:108CEC00130707032300E50033E7B70005050DFB69
:108CFC0022449244310182801396C50191833D8BAD
:108D0C00D18F9181E3FEE2FC024632971377F70F85
:108D1C00C1BF1C455D71A2C486C6A6C23EC48347B2
:108D2C0045002AC00144898B639E07547D54B6408C
:108D3C0022852644964461618280138725003AC8B7
:108D4C0003C71500630BF754B7D50220014302C2C9
:108D5C0081471305C0069304A007930280069385F0
:108D6C000534FD4663E4F606930607FEC14363E64D
:108D7C00D3008A06AE9694428286930607FDA543DD
:108D8C0063F8D3069306A0026313D70893F607047F
:108D9C0018421106639606126345070693E707020D
:108DAC003AC219A093E71700424705073AC8034790
:108DBC00F7FF45FB69A093E7270093E74700EDB762
:108DCC0093E78700D5B793E70701F9BF9306F00740
:108DDC0063E9F604930607FDA543E3E5D3FA13F71D
:108DEC00070419C729473307E3023303D7006DBFC4
:108DFC009243294793E707023387E30236973AC237
:108E0C0065B73307E0403AC293E7870271BF930618
:108E1C00E0026318D70013F7070411FB93E707046C
:108E2C0061B7630CA7066363E506630057089306F6
:108E3C00A0066304D7089306C0046300D7086357E1
:108E4C00030093F7F7FBC207C18301439366070244
:108E5C001385B6F9894563F6A5009305100663934F
:108E6C00B60637D7022021069D4613078733A18B00
:108E7C00F1CBB307D700BA846398F40C924733074D
:108E8C00E4403384E4003385D740A1AE9306400719
:108E9C00E30CD7F0E30A97F05DB713F7070819C393
:108EAC0093E7072093E7070801B713F7071019C3D7
:108EBC0093E7072093E70710C5BD93E70728EDB5A7
:108ECC003A83DDB59305D7F94945636FB51C37D5A2
:108EDC0002208A0513054538AA958C4182851842D3
:108EEC00854611062306E102781051B71842930407
:108EFC00460009E737D702201307073393F6070418
:108F0C00FD5591C29A853A853ECA3AC6EFF07FCBA1
:108F1C00D2473247AA86268699BF8245A2471305B7
:108F2C00000232CC36CA3AC68297634F05023247EA
:108F3C00D2466246FD14E3E296FE924726C23E9468
:108F4C00058C05BF9244C5BF3ECC8245A24703C5E4
:108F5C00040032CE36CA3AC6829785043247D246CE
:108F6C00E2477246E35A05F08247024783C747003F
:108F7C0093E747002302F70055BB93F60708BDCED5
:108F8C0093F60720ADC608424C429306860036C6BF
:108F9C0093F2F7FEC20293D2020163D10508B337F4
:108FAC00A000B305B0409D8D3305A04093E2024074
:108FBC0064102686A9461ACE16CC3ACAEFF07FC4A6
:108FCC005247E24272433306954093F70204DDCFD9
:108FDC0093F5E2FFC205C18163536616630A071459
:108FEC0093F60201639F06149A84AE82B9A00842DC
:108FFC009306460036C69355F54159BF9306460075
:10900C0036C693F607100842FDD693F6072081C6A4
:10901C0062056185CDB742054185F1BFB366B500E8
:10902C00C1FA93F60704C9D6E31403F893F2E7FEEA
:10903C00C20293D202018144014693F662406386D8
:10904C0006108504814611A2BD9BC207C183A946A7
:10905C0093F50708C1CD93F50720D9C19305860078
:10906C002EC608424C423366B5004DE293F297FE91
:10907C00C20213F6070493D2020151CE631D0308FA
:10908C0093F287FEC20293D20201014693F60201CB
:10909C00E9CE9304160055CBB28775A093E7070170
:1090AC00C146130780076DB7930580076396B6001A
:1090BC00998E93E6060169BF8245A24713055002BB
:1090CC0032C63AC28297E34105EA12478245A2476B
:1090DC003A85090482973246C1AAA14601478DBF41
:1090EC000842930546002EC68145B5BF9305460040
:1090FC0008422EC613F6071065DA13F6072001C6D0
:10910C001375F50FD5B742054181F9BFE59B9392D5
:10911C00070193D20201641026861ACE16CC3ACAE5
:10912C00EFF03FAE7243E24252473306954071BDB9
:10913C0093F2E2FEC20293D202019A84FDBDAE828A
:10914C00B1B79A87AE829384270093F58200A1ED84
:10915C0093F5120089C99247328363D6F400858F48
:10916C0092443383C700A6833DA0B284F9B58245EF
:10917C00A2471305000236D41ED232D01ACE16CC1A
:10918C003ACA8297E34205DE92535247E242724357
:10919C000256A25685039247E3CBF3FCB3079440E7
:1091AC00338477009E843ACEA1CE8245A247130524
:1091BC00000332CC1ACA8297E34805DA724752434D
:1091CC0062461DE3050422871A94B306E440634EFD
:1091DC00D604328425E892473304E60032463385C0
:1091EC009740B304A40051A8824532CC1ACA090492
:1091FC003A85A247829752436246E35605FCADB3CB
:10920C0013F7624069D313F722001305000219C348
:10921C001305B00293F20240638402001305D002DE
:10922C00824532CC1ACA0504E9B78245A247050724
:10923C001305000332CC3ACA829752476246E35672
:10924C0005F81DB37D149307C402B386270082452D
:10925C0003C50600A24732CC3ACA829752476246EF
:10926C00E35A05F611B38245A2471305000232C238
:10927C00829712460504E34905CEB3878440E34444
:10928C00F0FEC24503C70500E30307AA930750028B
:10929C00E305F7AA938715003EC88245A2473A8595
:1092AC0032C2829712460504E35D05FC75B92A8328
:1092BC0009CA83830500230073007D160503850509
:1092CC006DFA82802A8311C62300B3007D16050334
:0492DC0065FE828029
:1092E0005A9B0220000000001E9202200000000095
:1092F0002E920220000000000000000050C3022057
:109300000000000030C302200000000070C30220F3
:109310000000000090C302208092022000000000A4
:10932000FA9A022000000000F891022000000000DC
:10933000C8D10220ECD10220B8CC0220FCE50220EA
:1093400024D60220AA96022000000000000000009F
:10935000D4D1022000D20220B8CC0220FEE50220A7
:1093600030D60220AA960220000000000000000073
:10937000E0D1022014D20220B8CC022000E6022064
:109380003CD60220AA960220000000000000000047
:1093900058D2022064D20220DCCC022002E6022055
:1093A00004D402208E990220889902200000000037
:1093B00000000000000000000000000000000000AD
:1093C000000000009A8F0220000000009A8F022007
:1093D000000000009A8F0220000000009A8F0220F7
:1093E000000000009A8F0220000000009A8F0220E7
:1093F000000000009A8F0220000000009A8F0220D7
:10940000000000009A8F0220000000009A8F0220C6
:10941000000000009A8F0220000000009A8F0220B6
:10942000000000009A8F0220000000009A8F0220A6
:10943000000000009A8F0220000000009A8F022096
:10944000000000009A8F0220000000009A8F022086
:10945000000000009A8F0220000000009A8F022076
:10946000000000009A8F0220000000009A8F022066
:10947000000000009A8F0220000000009A8F022056
:10948000000000009A8F0220000000009A8F022046
:10949000000000009A8F0220000000009A8F022036
:1094A000000000009A8F0220000000009A8F022026
:1094B000000000009A8F0220000000009A8F022016
:1094C000000000009A8F0220000000009A8F022006
:1094D000000000009A8F0220000000009A8F0220F6
:1094E000000000009A8F0220000000009A8F0220E6
:1094F000000000009A8F0220000000009A8F0220D6
:10950000000000009A8F0220000000009A8F0220C5
:10951000000000009A8F0220000000009A8F0220B5
:10952000000000009A8F0220000000009A8F0220A5
:10953000000000009A8F0220000000009A8F022095
:10954000000000009A8F0220000000009A8F022085
:10955000000000009A8F0220000000009A8F022075
:10956000000000009A8F0220000000009A8F022065
:10957000000000009A8F0220000000009A8F022055
:10958000000000009A8F0220000000009A8F022045
:10959000000000009A8F0220000000009A8F022035
:1095A000000000009A8F0220000000009A8F022025
:1095B000000000009A8F0220000000009A8F022015
:1095C000000000009A8F0220000000009A8F022005
:1095D000000000009A8F0220000000009A8F0220F5
:1095E000000000009A8F0220000000009A8F0220E5
:1095F000000000009A8F0220000000009A8F0220D5
:10960000000000009A8F0220000000009A8F0220C4
:10961000000000009A8F0220000000009A8F0220B4
:10962000000000009A8F0220000000009A8F0220A4
:10963000000000009A8F0220000000009A8F022094
:10964000000000009A8F0220000000009A8F022084
:10965000000000009A8F0220000000009A8F022074
:10966000000000009A8F0220000000009A8F022064
:10967000000000009A8F0220000000009A8F022054
:10968000000000009A8F0220000000009A8F022044
:10969000000000009A8F0220000000009A8F022034
:1096A000000000009A8F0220000000009A8F022024
:1096B000000000009A8F0220000000009A8F022014
:1096C000000000009A8F0220000000009A8F022004
:1096D000000000009A8F0220000000009A8F0220F4
:1096E000000000009A8F0220000000009A8F0220E4
:1096F000000000009A8F0220000000009A8F0220D4
:10970000000000009A8F0220000000009A8F0220C3
:10971000000000009A8F0220000000009A8F0220B3
:10972000000000009A8F0220000000009A8F0220A3
:10973000000000009A8F0220000000009A8F022093
:10974000000000009A8F0220000000009A8F022083
:10975000000000009A8F0220000000009A8F022073
:10976000000000009A8F0220000000009A8F022063
:10977000000000009A8F0220000000009A8F022053
:10978000000000009A8F0220000000009A8F022043
:10979000000000009A8F0220000000009A8F022033
:1097A000000000009A8F0220000000009A8F022023
:1097B000000000009A8F0220000000009A8F022013
:1097C000000000009A8F0220000000009A8F022003
:1097D000000000009A8F0220000000009A8F0220F3
:1097E000000000009A8F0220000000009A8F0220E3
:1097F000000000009A8F0220000000009A8F0220D3
:10980000000000009A8F0220000000009A8F0220C2
:10981000000000009A8F0220000000009A8F0220B2
:10982000000000009A8F0220000000009A8F0220A2
:10983000000000009A8F0220000000009A8F022092
:10984000000000009A8F0220000000009A8F022082
:10985000000000009A8F0220000000009A8F022072
:10986000000000009A8F0220000000009A8F022062
:10987000000000009A8F0220000000009A8F022052
:10988000000000009A8F0220000000009A8F022042
:10989000000000009A8F0220000000009A8F022032
:1098A000000000009A8F0220000000009A8F022022
:1098B000000000009A8F0220000000009A8F022012
:1098C000000000009A8F0220000000009A8F022002
:1098D000000000009A8F0220000000009A8F0220F2
:1098E000000000009A8F0220000000009A8F0220E2
:1098F000000000009A8F0220000000009A8F0220D2
:10990000000000009A8F0220000000009A8F0220C1
:10991000000000009A8F0220000000009A8F0220B1
:10992000000000009A8F0220000000009A8F0220A1
:10993000000000009A8F0220000000009A8F022091
:10994000000000009A8F0220000000009A8F022081
:10995000000000009A8F0220000000009A8F022071
:10996000000000009A8F0220000000009A8F022061
:10997000000000009A8F0220000000009A8F022051
:10998000000000009A8F0220000000009A8F022041
:10999000000000009A8F0220000000009A8F022031
:1099A000000000009A8F0220000000009A8F022021
:1099B000000000009A8F0220000000009A8F022011
:1099C000000000009A8F0220000000009A8F022001
:1099D000000000009A8F0220000000009A8F0220F1
:1099E000000000009A8F0220000000009A8F0220E1
:1099F000000000009A8F0220000000009A8F0220D1
:109A0000000000009A8F0220000000009A8F0220C0
:109A1000000000009A8F0220000000009A8F0220B0
:109A2000000000009A8F0220000000009A8F0220A0
:109A3000000000009A8F0220000000009A8F022090
:109A4000000000009A8F0220000000009A8F022080
:109A5000000000009A8F0220000000009A8F022070
:109A6000000000009A8F0220000000009A8F022060
:109A7000000000009A8F0220000000009A8F022050
:109A8000000000009A8F0220000000009A8F022040
:109A9000000000009A8F0220000000009A8F022030
:109AA000000000009A8F0220000000009A8F022020
:109AB000000000009A8F0220000000009A8F022010
:109AC000000000009A8F0220000000009A8F022000
:109AD000000000009A8F0220000000009A8F0220F0
:109AE000000000009A8F0220000000009A8F0220E0
:109AF000000000009A8F0220000000009A8F0220D0
:109B0000000000009A8F0220000000009A8F0220BF
:109B100058E502208C930220000000009A8F02205A
:109B2000000000009A8F0220000000009A8F02209F
:109B3000000000009A8F0220000000009A8F02208F
:109B4000000000009A8F0220000000009A8F02207F
:109B50008CAA0220F49C0220000000009A8F0220B0
:109B6000000000009A8F0220000000009A8F02205F
:109B7000000000009A8F0220000000009A8F02204F
:109B8000000000009A8F0220000000009A8F02203F
:109B9000000000009A8F0220000000009A8F02202F
:109BA000000000009A8F0220000000009A8F02201F
:109BB000000000009A8F0220000000009A8F02200F
:109BC000000000009A8F0220000000009A8F0220FF
:109BD000000000009A8F0220000000009A8F0220EF
:109BE000000000009A8F0220000000009A8F0220DF
:109BF000000000009A8F0220000000009A8F0220CF
:109C0000000000009A8F0220000000009A8F0220BE
:109C1000000000009A8F0220000000009A8F0220AE
:109C2000000000009A8F0220000000009A8F02209E
:109C3000000000009A8F0220000000009A8F02208E
:109C4000000000009A8F0220000000009A8F02207E
:109C5000000000009A8F0220000000009A8F02206E
:109C600090C3022024990220000000009A8F022055
:109C7000000000009A8F0220000000009A8F02204E
:109C8000000000009A8F0220000000009A8F02203E
:109C9000000000009A8F0220000000009A8F02202E
:109CA000DCE402208C930220000000009A8F022046
:089CB000000000009A8F022061
:109CB800A6940220F492022000930220149302201A
:109CC8001E930220289302209093022042930220A0
:049CD8000000000088
:0C9CDC003C990220529A02202E9902208E
:109CE800040000000F000000010000000800000050
:109CF800200000004C0000005C0000000D00000087
:109D08000C0000000E0000003000000060000000A1
:109D18009C000000FFFFFFFFFFFFFFFFFFFFFFFFAB
:049D2800FFFFFFFF3B
:109D2C00C8E4022000010200000102020303030345
:109D3C0004040404040404040505050505050505CF
:109D4C0005050505050505050606060606060606AF
:109D5C000606060606060606060606060606060697
:109D6C00060606060606060607070707070707077F
:109D7C000707070707070707070707070707070767
:109D8C000707070707070707070707070707070757
:109D9C000707070707070707070707070707070747
:109DAC00070707070707070708080808080808082F
:109DBC000808080808080808080808080808080817
:109DCC000808080808080808080808080808080807
:109DDC0008080808080808080808080808080808F7
:109DEC0008080808080808080808080808080808E7
:109DFC0008080808080808080808080808080808D7
:109E0C0008080808080808080808080808080808C6
:109E1C0008080808080808080808080808080808B6
:109E2C0008080808080808086E726635346C313565
:109E3C00646B2F6E726635346C31352F63707566BA
:109E4C006C70720048656C6C6F20576F726C64217B
:109E5C002025730A000000002A2A2A20426F6F7402
:109E6C00696E67206E524620436F6E6E6563742078
:109E7C0053444B2076332E322E312D6438383837FC
:109E8C0066366633326466202A2A2A0A00000000ED
:109E9C002A2A2A205573696E67205A657068797270
:109EAC00204F532076342E322E39392D65633738B6
:109EBC003130346631353639202A2A2A0A0000001E
:109ECC00206D63617573653A20256C642C202573B5
:109EDC000A00000020206D7476616C3A20256C78A5
:109EEC000A000000202020202061303A2025303844
:109EFC006C782020202074303A202530386C780A79
:109F0C0000000000202020202061313A202530382C
:109F1C006C782020202074313A202530386C780A57
:109F2C0000000000202020202061323A202530380B
:109F3C006C782020202074323A202530386C780A36
:109F4C0000000000202020202061333A20253038EA
:109F5C006C780A00202020202061343A20253038EB
:109F6C006C780A00202020202061353A20253038DA
:109F7C006C780A00202020202073703A202530387D
:109F8C006C780A00202020202072613A202530387D
:109F9C006C780A002020206D6570633A20253038DB
:109FAC006C780A006D7374617475733A20253038BF
:109FBC006C780A00202020202073303A202530387D
:109FCC006C780A00202020202073313A202530386C
:109FDC006C780A00496E737472756374696F6E20C5
:109FEC0061646472657373206D6973616C69676E0B
:109FFC0065640000496E737472756374696F6E20CA
:10A00C00416363657373206661756C7400000000B6
:10A01C00496C6C6567616C20696E737472756374DE
:10A02C00696F6E00427265616B706F696E740000CF
:10A03C004C6F61642061646472657373206D697325
:10A04C00616C69676E6564004C6F61642061636369
:10A05C00657373206661756C7400000053746F72C5
:10A06C00652F414D4F2061646472657373206D6977
:10A07C0073616C69676E65640000000053746F72E5
:10A08C00652F414D4F206163636573732066617565
:10A09C006C740000456E7669726F6E6D656E74201F
:10A0AC0063616C6C2066726F6D20552D6D6F6465ED
:10A0BC0000000000456E7669726F6E6D656E7420DF
:10A0CC0063616C6C2066726F6D20532D6D6F6465CF
:10A0DC0000000000756E6B6E6F776E00456E7669D2
:10A0EC00726F6E6D656E742063616C6C2066726F3E
:10A0FC006D204D2D6D6F646500000000496E73740A
:10A10C0072756374696F6E20706167652066617526
:10A11C006C7400004C6F616420706167652066612F
:10A12C00756C740053746F72652F414D4F207061C4
:10A13C006765206661756C7400000000E0CF02203A
:10A14C0000D002201CD0022030D002203CD00220B3
:10A15C0054D0022068D0022088D00220A0D0022047
:10A16C00C0D00220E0D00220E8D0022008D102208A
:10A17C0020D10220E0D0022030D10220E0D00220F9
:10A18C0020202020202532643A2073703A2025307C
:10A19C00386C782072613A202530386C780A0000CF
:10A1AC0063616C6C2074726163653A0A0000000094
:10A1BC0000A0105000820D50000405506770696FAC
:10A1CC0040313061303030006770696F4064383234
:10A1DC00303000006770696F40353034303000002B
:10A1EC001F00000000A01050DCE402200000000062
:10A1FC0000000000FFFF000000820D5058E5022017
:10A20C000000000001000000FF07000000040550E2
:10A21C0000000000000000000200000000A0105030
:10A22C0000820D50000405500000000001000000E9
:10A23C000400000005000000020000000600000001
:10A24C0008000000090000000F0000007561727426
:10A25C0040313034303030000040105000000000ED
:10A26C0000000000A0D2022000C201000000D601B4
:10A27C0000000000000000000000000000000000D2
:10A28C000040000000000000000000001DD402206F
:10A29C001CD4022000401050ACD20220020000005E
:10A2AC00CCD2022004000000BCD202200401000029
:10A2BC000080000001800001028000020380000386
:10A2CC00000000000200000201060001030600036A
:10A2DC0000A0105000820D500004055000071823F8
:10A2EC0023232323232323232323232308000000B6
:10A2FC0002000000040000000100000069646C65AD
:10A30C00000000006D61696E00000000E0C20220D8
:10A31C00E8C2022020C3022028C3022030C302203E
:10A32C0030C30220286E756C6C2900002A666C6F95
:10A33C0061742A00C6BD022086BD022086BD0220A3
:10A34C00D2BD022086BD022086BD022086BD022021
:10A35C00B4BD022086BD022086BD022086BD02202F
:10A36C00C2BD022086BD0220CCBD022086BD0220CB
:10A37C0086BD0220B0BD0220EABE022086BF0220AC
:10A38C00B4C00220B4C00220B4C00220B4C0022069
:10A39C0086BF0220B4C00220B4C00220B4C0022088
:10A3AC00B4C00220B4C00220E6C00220A8C0022023
:10A3BC00B4C00220B4C00220F8BE0220B4C00220F7
:04A3CC0054C0022057
:10B4700000000000180000000000000000000000B4
:10B4800000000000000000000000000000000000BC
:10B4900000000000000000000000000000000000AC
:10B4A000000000000000000000000000000000009C
:10B4B000000000000000000000000000000000008C
:10B4C000000000000000000000000000000000007C
:10B4D000CC910220000000000000000000C01050CD
:10B4E000000000000000000000000000000000005C
:10B4F000000000000000000000000000000000004C
:10B50000000000000000000000000000000000003B
:10B51000000000000000000000000000000000002B
:10B52000000000000000000000000000000000001B
:10B53000000000000000000000000000000000000B
:10B5400000000000000000000000000000000000FB
:10B55000000000000100000000A00D5000000000ED
:10B5600000000000000000000000000000000000DB
:10B5700000000000000000000000000000000000CB
:10B5800000000000000000000000000000000000BB
:10B5900000000000000000000000000000000000AB
:10B5A000000000000000000000000000000000009B
:10B5B000000000000000000000000000000000008B
:10B5C000000000000000000000000000000000007B
:10B5D00000000000FE9A022000000000FF000000B2
:10B5E000888D02200090D003FF0000000F000000B3
:0CB5F00071020000F4E50220F4E50220E6
:08B5FC00000000000000000047
:040000052002800055
:00000001FF
