:020000040000FA
:10000000484F0020415D00002B6E00002D5D000078
:100010002D5D00002D5D00002D5D00002D5D0000B8
:10002000000000000000000000000000A15D0000D2
:100030002D5D0000000000002D5D00002D5D000022
:1000400069070000690700006907000069070000F0
:1000500069070000690700006907000069070000E0
:1000600069070000690700006907000069070000D0
:1000700069070000690700006907000069070000C0
:1000800069070000690700006907000069070000B0
:1000900069070000690700006907000069070000A0
:1000A0006907000069070000690700006907000090
:1000B0006907000069070000690700006907000080
:1000C0006907000069070000690700006907000070
:1000D0006907000069070000690700006907000060
:1000E0006907000069070000690700006907000050
:1000F0006907000069070000690700006907000040
:10010000690700006907000069070000690700002F
:10011000690700006907000069070000690700001F
:10012000690700006907000069070000690700000F
:1001300069070000690700006907000069070000FF
:1001400069070000690700006907000069070000EF
:1001500069070000690700006907000069070000DF
:10016000B119000069070000690700006907000075
:1001700069070000690700006907000069070000BF
:1001800069070000690700006907000069070000AF
:10019000690700006907000069070000690700009F
:1001A000690700006907000069070000690700008F
:10047000690700006907000069070000024B18685F
:10048000421C1A60704700BFFC1D0020024A13681E
:10049000013B1360704700BFFC1D0020014B1B682F
:1004A000184700BF180200202DE9F047058B0446CD
:1004B0002807904612D4022905F0070540F0CD80A8
:1004C000204605F0C8FE80B10138218B042800F2D7
:1004D0009F80DFE800F0C29D657D8D0001290CBF83
:1004E00045F0100545F02005258388F31188BFF3FA
:1004F0006F8FBDE8F08701F007035A1F012A1CD84F
:10050000002221F00701062B276889B2C4E90022E6
:1005100009D13B4603E0628B013262831B68002BEA
:10052000F9D141F002012046218305F094FE002814
:1005300000F0A18041F020019CE0042B0AD121F0C1
:10054000070189B22046218305F085FE10B141F0F4
:1005500020012183218B01F0070AAA4575D00027CD
:10056000B946A368002B00F08E8041F0080121837A
:1005700088F31188BFF36F8FA168002900F08C8089
:100580000D68002900F08880334652462046D1F895
:100590000480C047002D48D02B6829461D46F0E74F
:1005A000236921F0070141F00601062DD3F80090E0
:1005B000218335D1B9F1000F47D041F008012183E3
:1005C00088F31188BFF36F8F20463D49C84731E05B
:1005D00021F00701236941F0040189B2042DD3F809
:1005E00004902183E6D000274FF0040A3E46B8E786
:1005F00021F00701236941F0050189B2052DD3F8E7
:1006000008902183D6D000274FF0050A3E46A8E780
:1006100001F0070AAA4518D00027B9463E46A0E7D0
:1006200000274FF0060A3E469BE72B46B5E7B9F197
:10063000000FC9D1EFF31188202383F31288BFF391
:100640006F8F238B23F008032383258BEA062ED597
:1006500025F01003238305F007056669218B002E22
:10066000BFF649AF00232768C4E9003321F0070132
:1006700041F001012183218B4FF0000901F0070AAD
:10068000AA457FF46EAF002F94D041F0080121837A
:1006900088F31188BFF36F8F002FC8D03D683946AB
:1006A00033465246204605F0C4FD2F46F4E7AB061C
:1006B0007FF51BAF25F02003238305F00705FFE638
:1006C0008F620000002210B50C4B1C7884420FD0C2
:1006D00001320F2A03F11003F7D16FF0010010BDB2
:1006E000D2685078C00706D5107820B90B60F6E7BD
:1006F000DA68002AF4D16FF01200F0E74C760000BF
:10070000002807DB01234109034A00F01F00834052
:1007100042F82130704700BF00E100E000280CDB08
:1007200001220649430900F01F008240203341F8AE
:100730002320BFF34F8FBFF36F8F704700E100E0BE
:100740000028ACBF00F16040064B4FEA4111C9B22E
:10075000ABBF00F5614000F00F0080F800131954A2
:10076000704700BF14ED00E0EFF30583034A103B30
:1007700002EBC301496852F833000847F0940000C7
:10078000244B254A4FF47A611A600122234B2448F6
:10079000C3F80424D0F82436C3F30802C3F3094392
:1007A0004B4382F480721F49883201FB02334FF4BD
:1007B000FA215B00B3FBF1F201FB12331A49B3F5E6
:1007C0007A3F28BF0132C1F80429D0F820364FF40F
:1007D0007A60C3F30802C3F30943434342F21C5057
:1007E00082F4807202F2172200FB02334FF47A7017
:1007F0001B0AB3FBF0F200FB1233B3F5FA7F4FF0A4
:10080000010328BF0132C1F81C270020C1F80036BF
:10081000704700BF140200200020A107002008E05C
:1008200000C0FF00F82A008000001250084B70B58D
:10083000C31A0D4607499B100446594340220648F7
:1008400005F092FD2B4601462046BDE87040184752
:10085000A01D0020B76DDBB6E8730000402373B520
:100860000B4C0093041B0B460D460A49A410614330
:100870000646094A094805F0A2FD011E05DA304680
:100880002B4602B0BDE87040184702B070BD00BFF3
:10089000A01D0020B76DDBB62D640000E8730000DA
:1008A000014B1B68184700BF901D002070B5022146
:1008B000044640F20510FFF743FF1D4B1A7912B1B1
:1008C0006FF0040070BD1B4A1A6001221A711A4BA6
:1008D00019790029F4D119491A711960184B19793D
:1008E0000029EDD117481A711860174BC3F840144E
:1008F000164B1B6A9B0603D440F20510FFF700FF5E
:10090000236993B11C220021184606F0EAFC012558
:100910001C220F4E0564066124690021A01806F010
:10092000E0FC0020E662E564CCE76FF01500C9E763
:10093000901D00204D680000981D0020A1080000B7
:10094000F41D00203F64000000E0105000E100E0D2
:10095000E08A00000A2810B5044603D10D2104489E
:1009600000F0AAFC0248E1B200F0A6FC204610BD4F
:10097000687400000023024A0020C1E90023704788
:100980000050160000487047D88A0000024B0B60E8
:1009900001231360704700BFD08A0000024B034A56
:1009A0000020C3F80C25704700B004508000008080
:1009B000036803F01F025F2B02604FEA53129ABFD5
:1009C000024B53F822000020704700BFC48A000089
:1009D0004209022A034670B503D0012A18D0CAB1D1
:1009E00070BD0E4E326951680029F9D0012503F01F
:1009F0001F030C689D400029F2D08A682A4002D06B
:100A000030464B6898473CB1236821461C46F2E7C4
:100A1000034EE7E7034EE5E72346F6E728740000B8
:100A200008740000487400002DE9F04F4368027A12
:100A300085B003EBC2029A4204D86FF0010005B002
:100A4000BDE8F08F5C798C4200F0B1800833F2E7AA
:100A5000DBF80020C2F3C323082BC2F3080100F225
:100A6000A380514508BF4FF0FF31B2F1D05F19F8B4
:100A700003604FEA126310D2192B12D8DFE803F09B
:100A80001422686529336511111111111111111109
:100A90001111111111116B76797C382B6FD04E2BFF
:100AA00056D06FF08500CAE7C5F80416481C14D06C
:100AB000012403A80391FFF77BFF039B04FA03F3D0
:100AC000436004E0C5F80C164A1C06D000242246F8
:100AD00017E04B1CC5F8001664D10BF1040B5F4501
:100AE000B6D10020ABE74C1CC5F80416F5D00124A4
:100AF00003A80391FFF75CFF0122039B02FA03F3B3
:100B00008360DBF80030039103F40040002818BF35
:100B1000002203A818BF012401930092FFF748FFA9
:100B20000399019B00EB8100D0F88010C3F3412CA6
:100B3000009A330243EA8C03134301EA08010B4392
:100B400043EA4403C0F88030C7E7C5F80816BBE79E
:100B5000C5F81016AAE7C5F860154A1CDBF8003086
:100B6000BBD0C3F30043002BC1D0A1E7C5F8641587
:100B7000F3E7C5F86815F0E7C5F86C15EDE703A8CD
:100B80000391FFF715FF039B00EB8300D0F8803043
:100B900023F0E04343F08043C0F880304B1C9CD0EE
:100BA000012494E70024A3E76FF0150047E7D3F88A
:100BB00000B01F7940F2FF1A0568DFF80C90DFF8EB
:100BC0000C800BEB87078AE7C4940000F0F0FCFF71
:100BD00038B505460221C620FFF7B2FDC620FFF753
:100BE0008FFD6C680121E068FFF71EFF6B681968D4
:100BF0006369C1F82435E28BA38BA07E1343228C5A
:100C00001343628C1343627E9BB20243207E0243F5
:100C10001343C1F86C3569680B68D3F8002242F4BD
:100C20008022C3F800220822C3F800254A6A012165
:100C3000C3F83C270022C3F840271965D3F83011C8
:100C40000029FBD0C3F800252846BDE838400149FB
:100C500005F0F7BB3B6500002DE9F84F884D894F43
:100C6000D5E90064911B63EB0400490941EAC061C6
:100C70004801801944EBD164C7E90023C5E90004A9
:100C800000230024804AC2E90034EFF311822023BC
:100C900083F31288BFF36F8F7C4EDFF8F4913068D6
:100CA000DFF8F081B04208BF0020C9F80010964676
:100CB000D8E90021D9F80030A8B3D0E9044B4FEAB5
:100CC000E37CA3427CEB0B0A05DAE41A6BEB0C0B1A
:100CD000C0E9044B27E0A21841EBE4710023C8E906
:100CE00000210022C0E90423D0E9003213605A60D9
:100CF0000023C0E900338EF31188BFF36F8F836840
:100D00009847EFF3118E202383F31288BFF36F8F80
:100D1000D9F8003030681B1BB0427246C9F8003069
:100D2000C5D1D8E900219A1841EBE373C8E9002343
:100D30000023C9F80030584B584C1B7AD6F8008075
:100D4000E21892F854C0D7E900A9554FB045D7E949
:100D500000100CF10C0638D0B8F1000F35D0D8E9EE
:100D60000428B2F1004F78F1000B2EDAB8F1000F31
:100D7000B8BF0022814508BF8A45904627D1B2F10D
:100D8000806F24DA5201012A38BF0122511840F144
:100D90000000C7E9001004EBC60554F83610686877
:100DA0001B01891803F1A04340F1000042F000420A
:100DB00003F5622344F836106860C3F828258EF3E3
:100DC0001188BFF36F8FBDE8F88F6FF00048D5E949
:100DD000002ADFF8B4904FF0200BD9E900595219DE
:100DE0004AEB090A1546D146C8FB0B59A94270EBDC
:100DF0000908C7E900591BB2C9F313070FD304EB65
:100E0000C60244F83650C2F804901B0103F1A04317
:100E100003F56223C3F82055C3F82475CFE7891A78
:100E20000CF10C0C60EB0A00C82904EBCC0670F145
:100E3000000044F83C50C6F80490E6DA1A0102F1CA
:100E4000A04202F56222C2F82055C2F82475154A64
:100E50009B001A441368002BB1D04FF0FF346FF0A1
:100E60004043114ED6E90001844273EB0107F9D3E8
:100E7000A84271EB0909A2D2002313609FE700BFCB
:100E8000C0020020B8020020B0020020F8010020BB
:100E90008C1D0020A8020020000200206800002015
:100EA000A002002000210E5040270E50F0B585B062
:100EB0006E4681680546103921F00F0405F02DFAC1
:100EC00032460A4B03F1100C37461868596808334C
:100ED00003C763453E46F7D110232146284605F057
:100EE00006FA003818BF012005B0F0BDBE8C000026
:100EF000064BD3F840231C2A05D1D3F84403431EE4
:100F00005842584170470020704700BF00C0FF00A2
:100F100003689A070CD50368DB070DD50922074B38
:100F2000C3F80C250F22C3F8042501221A60FEE73E
:100F3000034B0360EF3B0360704700BF008010501D
:100F4000F000FA50034A4309D35C00F01F00184434
:100F5000C0B27047B4940000F0B50646002487B0D4
:100F6000114F019117F8012B06AB03EBD20313F8D5
:100F7000143C02F00702D34013F0010306D1013400
:100F8000032CEFD10023184607B0F0BD074A03AD8C
:100F900007CA85E8070055F824100A6A46F8242095
:100FA0000A62002AEBD0EEE7CD9400002075000025
:100FB0000123044A03FA00F0936823EA00039360D4
:100FC000704700BF68000020124B70B553F82050E6
:100FD000013053F82060AE4200D870BD6C68B4B1E7
:100FE000237FDB0711D4636953B12046984738B19A
:100FF0000028B8BF4042FF28A8BFFF20E368187050
:10100000E268537843F0010353700835E3E72B6837
:101010009847FAE79C8A000001680E4A034691420D
:1010200015D1C169A2F11022A2F1EF1291420ED1A5
:101030008268012A0BD8C26812B101698A4206D0BF
:10104000586928B19B691B1A5842584170470120C2
:10105000704700BF55AA00FF70B50D4B9E68A6B142
:101060003046FFF7D9FF044678B9F3686BB93569A4
:101070000DB9204670BD2846FFF7CEFF28B9EB68B2
:10108000B34202D12E462D69F2E70124F1E700BFF9
:10109000641D002010B5034B0A461B68002104465E
:1010A000984710BDEC01002010B5044610B109B1FD
:1010B000FFF7F0FF024B2046BDE810401B681847C1
:1010C000F001002070B5446A05460E4644B9074B4E
:1010D00001201B689847686228B12046AE6270BD47
:1010E0006FF08A00FBE76FF08C00F8E7F401002056
:1010F0000022074BC3F81021C3F80C21C3F80021CC
:10110000C3F80421C3F80821C3F81421704700BFB5
:1011100000500450C36870B57BB9C36900F1280260
:101120001A60C369454A9A604368C269DB6843F440
:101130008063D360C3691033C361836A9B052FD476
:101140000368C268DD6800F1EC04302D34BF082666
:1011500010261D6901366B1E1340EB1AB34238BFCF
:101160005B191C44D50004F8015C03F1EB0452093F
:10117000044400F1ED05A5425CD1802280F8EC200A
:10118000426AC469C4322260C26993604468C26919
:10119000E468D460C2691032C26102691A44026113
:1011A0000269C469D31C23F003039B1A54F8042C6E
:1011B00042EA032244F8042CC26952F8084C234442
:1011C00043F0005342F8083C026A0368DB68116090
:1011D0000168026AC96803339160026A23F003035D
:1011E00002F1100101620168C96899420BD0002127
:1011F00011610168026AC9685B1A43F08043936019
:10120000036A10330362836A13F4806311D10268A6
:101210005169D26891420CD0026A13600268016A77
:101220005369D2689B1A43F080438B60036A103382
:10123000036270BD04F8012D120A9CE7040000202F
:10124000144B4FF0010C1A6808209169C3E919C0CA
:10125000C1F30B02482A5A6528BF482211F4003F07
:101260009A6508BF0022DA6511F4803208BFC3E92D
:10127000152201F47002B2F5700F14BF00229A6DAE
:1012800000299A65BCBF0022C3E9192201221A6510
:10129000704700BF04070020044B1868044BB0FBE4
:1012A000F3F0044B43F00103184700BF1402002081
:1012B00040420F00307500002DE9F04104460D4614
:1012C0004768EFF305837BB9244B1B7863B14FF07C
:1012D0002008642663681B68D3F8303163BBFFF7CE
:1012E000DBFF013EF6D1F4E72021EFF311831A462C
:1012F00081F31288BFF36F8F60680068D0F8300107
:1013000020B983F31188BFF36F8FEEE77B6A00206B
:101310001D706368796A1B68C3F83C170121C3F824
:101320004017C3F83001D3F83001196582F31188F2
:10133000BFF36F8FBDE8F081EFF311831A4688F396
:101340001288BFF36F8F61680968D1F830110029E6
:10135000DCD183F31188BFF36F8FBAE746270020F3
:1013600038B504230A4C42F21075C4F8083301233F
:1013700063610023C4F80831D4F80831D4F84C3440
:10138000DB0303D5FFF788FF013DF7D138BD00BF70
:1013900000E0105010B51D4B1D4CD3F84C14D3F881
:1013A0004C2411F4803F18D002F00302012A03D02C
:1013B0000AB1FFF7D5FF0022144BC3F840240022E6
:1013C000C3F80821D3F8082101221A61226872B9F2
:1013D000D3F80821002AFBD011E0D3F84824D10724
:1013E000E9D5D3F850249207E3D422681AB1042235
:1013F000C3F8042310BDD3F80821002AFBD0002233
:10140000C3F80821D3F80831F4E700BF00E010501A
:10141000F41D00200C22104B014602FB003300207B
:1014200030B4D3E90E529863EFF31180202484F393
:101430001288BFF36F8F1C6C04F0C00444F00204E8
:101440001C6480F31188BFF36F8F1DB12B4630BC35
:101450000248184730BC7047A01D0020E873000008
:10146000154B9A6A12F0007F9A6A14BF1E201D2045
:1014700012F0807F9A6A18BF1F2012F4801F9A6AA8
:1014800018BF022012F4002F9A6A18BF212012F40C
:10149000802F9A6A18BF222012F4003F9A6A18BF60
:1014A000232012F4803F9A6A18BF24206FEA024278
:1014B0006FEA12429A62704700ED00E010B5194BD6
:1014C0000246986A9C6A10F4805F14BF17201620A9
:1014D00014F4006F9C6A18BF1820A40509D5986BF6
:1014E000986A000404D51AB19A6A22F400429A62FA
:1014F00019200C4B9A6A12F4806F9A6A18BF1A204E
:10150000D2050CD49B6A13F4005F18BF1C20054A57
:10151000936A43F47F43936200230B7010BD1B203A
:10152000F5E700BF00ED00E010B51C4B0246986ADD
:101530009C6A10F0100F14BF1120102014F0080F37
:101540009C6A18BF1220A40709D5586B986A000638
:1015500004D51AB19A6A22F080029A6213200F4BC6
:101560009A6A12F0010F9A6A18BF142012F0200F25
:101570009A6A18BF1520D40658BF9B6A074B9A6A0F
:10158000920642BF5A6A22F400525A629A6A42F0A4
:10159000FF029A6200230B7010BD00BF00ED00E057
:1015A0002DE9F84F06460F46904699460024DDF88F
:1015B00028A0DFF844B0A24501D800200FE0AAEB34
:1015C0000405B5F5806F28BF4FF4806530462B4683
:1015D000094A04EB080104F068FE10B10120BDE8DF
:1015E000F88F2B465A46384604EB090104F07FFE7B
:1015F0000028F3D12C44DEE7FC02002038B50D4B67
:101600000546C068DC6D04F00CFE844203D2E86835
:1016100004F007FE04464FF440726243A968644236
:101620005032224001232846891A05F063F9C00F81
:1016300038BD00BF001D00202DE9F0414768064677
:10164000BD6885B395F874406CBB4622214605F110
:10165000140095F8758005F044FE21461A4A2B685F
:1016600052F838C08C4524D14FF0000840F20D14D8
:10167000C3F84481D3F84421144A934214BF20464E
:10168000DB20FFF73DF8012385F874302B66BB683B
:101690000F4A0221DB20C3E90328FFF751F802219A
:1016A0002046FFF74DF83046BDE8F041094904F007
:1016B000C8BECAB2920002F58070442A04BF1C5012
:1016C0001A580131CEE700BFB48A000000A00D50C7
:1016D000D10900002B6100000022144B10B51A60E4
:1016E000134B144A00211A60134B144A1A60144B0E
:1016F00013F003020FBF4FF4006402F2FC74C2F156
:1017000004029B181846224605F0EBFD0D4A0E49CF
:10171000C2E900040160A1F11021203CA1F1EF1108
:1017200090604460C161D060002010BD741D002035
:10173000F4010020891D0000F0010020751E00004A
:10174000461F0020641D002055AA00FFF8B51E4D5D
:10175000064695F880350F467BB300242B4622467B
:10176000197FD1B13CB9022905D1196A19B9197982
:10177000002918BF1C460132202A03F12C03EFD1A7
:1017800014B96FF08C0006E0204605F017F82046EB
:1017900005F0EFF810B100240DE01C46237F7BB963
:1017A0000123237736B1094B651BAD105D4305F16D
:1017B0008045356000203C60F8BD6FF08800EAE7A6
:1017C0006FF09600E7E700BF74070020A38B2EBAE6
:1017D00070B5174D1446A84226D8C0F5B21303F5CC
:1017E00080539A4220D8CAB142F20103114DC5F884
:1017F0000035A9B105F097FDBFF35F8FD5F8183418
:10180000DB0706D4C4F308041CB10123AB60BFF3AB
:101810005F8F4FF40052074BC3F80025002070BDC6
:10182000FF2105F05EFDE7E76FF01500F7E700BF69
:10183000FF4F160000B0045010461A46084B10B572
:10184000994209D8C1F5B21404F58054A24203D8D4
:1018500005F069FD002010BD6FF01500FBE700BF2B
:10186000FF4F160010B4EFF31182202181F312888C
:10187000BFF36F8F2B48036843F0020413F0010F8E
:101880000460294B26D182F31188BFF36F8F0022A9
:10189000C3F81021D3F81011C3F81821D3F8181188
:1018A000C3F81421D3F814112049D1F840131C298E
:1018B00004BF012199601C4BC3F80021D3F800211B
:1018C00001221A601A4A12680AB37122C3F804236B
:1018D00010BC7047D3F80C04C003D4D5EFF31180CB
:1018E00081F31288BFF36F8F12490B6C03F0C003B2
:1018F00043F002030B6480F31188BFF36F8F82F310
:101900001188BFF36F8F002010BCFFF783BDD3F8A1
:101910000021002AFBD00022C3F80021D3F80031B7
:10192000D6E700BFF01D002000E0105000C0FF000F
:10193000981D0020A01D002070B5EFF31185202315
:1019400083F31288BFF36F8F154A136823F00201E7
:10195000116013F001021BD17121124B42F210747D
:10196000C3F8081301215960C3F80021D3F80021FE
:101970000D4A0C4ED2F840231C2A08BFD960D6F875
:101980000C3413F4803308D0FFF786FC013CF6D109
:1019900085F31188BFF36F8F70BD044A5371F7E769
:1019A000F01D002000E0105000C0FF00981D002036
:1019B000684620F007018D4601B5194BD3F8002188
:1019C000DAB1BFF35F8F4FF0A3418A6ABFF35F8F35
:1019D000BFF35F8F4FF0FF300863BFF35F8F0021CD
:1019E000C3F80011D3F800310E4B196819680A4387
:1019F0001A60BDE8014085467047D3F808110029F8
:101A0000F7D00220084909688860C3F80821D3F894
:101A10000831064B1A681A6842F00102E8E700BF75
:101A200000800450CC02002004070020C8020020DF
:101A300038B5084B5A78D20709D51C783CB9064D01
:101A4000284604F0CFF92046044B1D6038BD6FF0E6
:101A50001200FBE756020020550900001802002082
:101A60002DE9F04F814659F8043B8BB0D3F814139D
:101A700090F8754000936C4BC9B241F40031804638
:101A800053F83420009804F0C5FD810305463AD58B
:101A90000023CDE907330993634B07A803EBC40385
:101AA0005B6819460193FFF757FA042303EBC4035D
:101AB00003934FF0000B5D4B0DF11C0A0293029A49
:101AC000594912F8013B0292039A02EBD3028A5C55
:101AD00003F0070322FA03F3DA071AD40BF1010B20
:101AE000BBF1030F0AF1040AE9D14FF400310022DF
:101AF000009804F08FFD019907A8FFF72DFA002840
:101B0000D7D125F400350124002D75D10BB0BDE8E7
:101B1000F08F474B5B440493DAF800100029DDD0C6
:101B200091FAA1F1B1FA81F1049B1C7841EA4414C5
:101B30002046FFF707FA08EB4000878AC808BB0871
:101B4000059301231AF8002001F0070103FA01F1BF
:101B500022EA01020AF8002006A80694FEF728FFF0
:101B6000069A059B203250F82220C7F382065B07B5
:101B70003746C2F3014223D54846D6B221463A46FB
:101B800004F0FBFD06A80694FEF712FF069B203327
:101B900050F82330C3F301439E4207D10021204671
:101BA00004F05FFD3146204604F05BFD06A8069474
:101BB000FEF7FEFE0122069B02FA03F30362ABE787
:101BC000022A0DD10321204604F04BFD06F0050347
:101BD000012BEBD13A462146484604F0CEFDE5E71D
:101BE00002212046059204F03CFD032EF2D0059A16
:101BF000032ADBD1022EECE795FAA5F3B3FA83F3BF
:101C0000009904FA03F225EA020503F5A27251F8DD
:101C1000222008EB43034846B3F86410C2F30142A4
:101C200004F0ABFD70E700BFB48A0000CD94000063
:101C3000CD9400000122F8B54C49D1E8EF3FC1E84E
:101C4000E02F0028F9D13BBB49498A608A684B6084
:101C500002F00302012ACB601ED1CB608A68032AFE
:101C60001AD8EFF31185202282F31288BFF36F8F09
:101C70004FF6FF763F48848E04F00702C48EB442CC
:101C800044D0022A2FD10134C48685F31188BFF3D2
:101C90006F8F1C3004F0CDFAEFF305821AB9364B82
:101CA0001B78002B37D1EFF31182202383F31288A6
:101CB000BFF36F8F01200025012420272F4B304ECA
:101CC000D3F84CC4D3F84C141CF4803F29D001F055
:101CD0000301012925D1002844D082F31188BFF3E4
:101CE0006F8F0020F8BD5124D440E4070ED50B605F
:101CF000036A43B9C0E9071142B92A4602212148C3
:101D0000FEF7D2FBC8E719600162F5E785F3118899
:101D1000BFF36F8FC0E70421184B1046C3F80813B8
:101D2000C9E772B685F31188BFF36F8FBFF34F8F8A
:101D300020BF82F31188BFF36F8F62B6D3F84014CF
:101D400011F0FF01BCD1D3F808C1BCF1000FB7D02E
:101D5000C3F80811D3F80811C3F84044C6F8A071BD
:101D60001C61ADE70422C3F80423BAE7881D0020F4
:101D7000781D0020A01D00204627002000E0105004
:101D800000E100E0BC1D0020F8B5384D2B68EE687E
:101D9000D3B1AB68C3B1002860D000295ED001FB8D
:101DA00000F4B4FBF0F0884258D1211D56D8A207A8
:101DB0000CD024F003020432334603E0586890420A
:101DC0004ED29B69002BF9D11846F8BD2246F3E7A5
:101DD000801A232803F120061CD801229A60D3E937
:101DE0000512A9B18A619A690AB159695161002243
:101DF000C3E905222B69DB0703D5FFF72DF900287E
:101E000031D122460021304605F06BFA0346DBE76C
:101E1000EA60E8E702F1200C03EB0C012038C1E98D
:101E20000107CB601869124F086143F80C70A7F1E5
:101E30001027A7F1EF17CF6100B1C1605869486161
:101E40009F698F6140B18161886900B14161012062
:101E50001961C3E90120CAE7E960F5E70023B3E7A8
:101E60009F68002FB4D0012004F032F9641D0020D7
:101E700055AA00FF70B50546002840D03B4E336898
:101E8000002B3CD0B268002A39D0834203D8726854
:101E90001344984202D3012004F01AF9A0F120045F
:101EA0002046FFF7B9F80028F5D155F8183C012B6A
:101EB000F1D155F8143C45F8180C0BB39A68FAB9EF
:101EC00055F81C2C02F120015A680A445A6055E961
:101ED00005321A6155F8145C2B6903B1DD602022CC
:101EE0000021204605F0FDF9286908B183684BB34D
:101EF00033699B0703D5FFF7AFF80028CBD170BD3E
:101F000055F8100C00282AD0836843BB42686368E8
:101F100013442033636003692361D4E905239AB92C
:101F2000CBB9436963618269A261B3B19C61A36962
:101F300003B15C61236903B1DC602022002105F05C
:101F4000D0F9D5E72C46E1E79361A369002BE8D0EF
:101F500062695A61E5E7F360F7E7F460E7E7F36881
:101F600045F8083C03B15C61F460C1E7641D0020E2
:101F700030B50D46816887B0102302AA1039044697
:101F800004F093F9002802DA012007B030BD1022D6
:101F9000204602A904F0F5FA00283FD1102220497A
:101FA00002A805F0CDF900280CBF012302232B70F5
:101FB000A1680123203921F00F0120460DF107020D
:101FC000203904F072F90028DEDB9DF80730204646
:101FD00003F00F021B096A702B7101220DF107013A
:101FE00004F0CFFA10B96B78042B03D901236B707E
:101FF00000232B71A2682046203A22F00F02103AEB
:10200000A91C04F0CFFA0028BED1A2682046203ACD
:1020100022F00F02E91C04F0C5FAB6E70323C6E775
:10202000BE8C00002C232DE9F341204D0F4603FB0D
:102030000055D5F82080B8F1000F01D105F049F91D
:10204000EB682E8940461E44042331460DEB030203
:1020500004F02BF9044620B10124204602B0BDE86B
:10206000F08146F60813BDF804206D899A421AD112
:10207000BDF806309D4201D00324EEE7042340461C
:102080000DEB0302A91904F010F90028E4D146F67B
:102090000713BDF804209A42EED1BDF806302B4458
:1020A00033443B60D9E7002DF1D0E5E7001D002067
:1020B000F0B5214C0546266A85B0F06804F0B1F809
:1020C0004FF440735843B3685030834201D205F057
:1020D00000F96979E46D012904BF4FF0000C27462F
:1020E000297918BF670001F1FF3118BF4FEA042CAE
:1020F00004FB01342B68241A6444013BF06807FB9D
:10210000034404F08EF80746304604F006F90F2227
:1021100001460DF1010005F0E4F82B796A468DF8CF
:10212000003021463B46304604F0E1F8003818BF45
:10213000012005B0F0BD00BF001D00202DE9F341D6
:102140000221E420FEF7FCFA7C4B7D4CD3F81827E3
:1021500022F44032C3F81827227822B16FF07700BA
:1021600002B0BDE8F081D3F8101521F00201C3F8E8
:102170001015D3F8101541F00101C3F81015052111
:10218000C3F8A4160421C3F8AC160723672101F095
:1021900001000244013BD2B24FEA5101F7D1052AB6
:1021A00040F0C38019464FF0010C654E00256720B2
:1021B000CFB204E00CFA02F220EA0200013590FAF4
:1021C000A0F25FFA85FEBE45B2FA82F2F2D3013187
:1021D00032750529224482F8547006F10C06E5D1C7
:1021E0000121002557489A0801FA02F212F0670F00
:1021F00018BF1D500433302BF5D1E420FEF780FAD0
:102200004E4B0027D3F8102503F5C07322F00202CD
:10221000C3F8902340F6FF72C3F8A8214A4A1F6012
:10222000A3F58071043393420F60F8D14FF0010899
:10223000424D464EC5F860803068454BB0FBF3F028
:102240005D235843434B43EA08039847636801A85A
:1022500003EA080384F80080019304F09AFC002844
:10226000FFF67EAF3C4B20751F72636823F00103BD
:102270006360A36843F00103A360D5F810359F079E
:102280003FF56CAFD5F8103543F00203C5F81035B3
:10229000D5F8482712F0010202BFD5F8483743F0BD
:1022A0000103C5F84837254BD3F84017D3F8441736
:1022B0004800F9D42AB9D3F8482722F00102C3F81C
:1022C0004827234A3368B3FBF2F31C4A03EB43135A
:1022D00083B3D2F84017D2F84417490028D44FF0FE
:1022E000FF306FF040411D4DD5E90078B84271EBE9
:1022F0000806F9D31A4927F01F02C1E900284FF058
:10230000FF304FF0FF310C22164BC3E9000194F867
:102310005430002002FB0343134A1861DA600122A3
:102320001875064BC3F824231AE76FF08B0017E7E4
:10233000013BCDE76FF0730012E700BF00200E50A5
:102340006800002000210E50B0210E501402002021
:1023500040420F00607500000002002040270E5030
:10236000C0020020B8020020590C00002DE9F04FF7
:10237000D50640F2063548BF4FF00309D0F8048077
:1023800002EA050598F8103058BFC2F3401989B029
:1023900001F01F06B5F5837F144646EA43168DF813
:1023A0000A9044D00DD8062D43D005D8A5B1022DF2
:1023B00012D06FF0150037E0B5F5807FF9D1012517
:1023C0000AE040F202239D4235D0B5F5407F34D07B
:1023D000B5F5007FEDD104250123200303FA01F1B7
:1023E0002DD5D8F804305960D8F808706FBB05A80F
:1023F0000596FEF7DDFA059B84F4803100EB83003F
:10240000D0F88020C1F30041C4F3404343EA4103C4
:1024100022F4706243EA890322F00F0243EA0523A3
:102420001343C0F88030002009B0BDE8F08F0925C3
:10243000D2E70825D0E70625CEE70525CCE76203DD
:1024400044BFD8F804309960CEE7314638460DF1E4
:102450000B0204F07FF914F4403901903DD130466D
:10246000FEF770FD04B207EB4404A38ADB0725D511
:10247000384604F049F93146384604F005F940B1D0
:10248000A28A3B68520B03EB8203C3F81095C3F892
:1024900010953846314604F00DF9002305A8A382B3
:1024A0000596FEF785FA059B00EB8300D0F88020A7
:1024B000394B134043F00203C0F88030019B002BDE
:1024C000B1D1D8F808309DF80B1093F87500334B54
:1024D00003EB800004F085F8A5E7002303AACDE90B
:1024E0000623384605AACDE90333059304F06BFBB8
:1024F000002898DB14F40033D8F808903DD014F489
:10250000803430460CBF4FF0010A4FF0000AFEF74E
:1025100019FD3146074648469DF80AB004F0BFF859
:1025200028B9484604F0B0F800287FF47CAF3FB2E9
:1025300009EB4707BB8A13F01C0F02D0002C3FF4B5
:1025400072AF05A80596FEF733FA059B00EB8300F2
:10255000D0F8803023F4706323F00F0343EA8B0339
:1025600043EA4A0343EA052343F00103C0F88030FD
:10257000BB8A43F00303BB82A0E7CDE906333146B3
:102580000DF10A03484605AA059304F01CFB002838
:10259000FFF649AF92E700BFF0F0FCFF0C0200200D
:1025A0002DE9F041466801F01F04307CB56888B021
:1025B00044EA4014002D00F0B580B2F5001F07D1A9
:1025C0002146284604F0A0F8002008B0BDE8F081BC
:1025D0000027B2F5800F03A80397476063D1B3F1DA
:1025E000007F14BF052304238DF80C300023CDE9B0
:1025F00006030593F3680DF10707CB4013F0010FB5
:102600005CD1B2F1A07F59D102A80294FEF7D0F9B3
:10261000029B203350F82330DA074FD43A46214644
:10262000284604F097F816300AD195F875003F4B0C
:1026300003EB800004F0ADFA0028C6DB8DF807003C
:1026400004972146B06805AA04F0BDFA0028BCDB57
:10265000B5682146284604F017F880462046FEF764
:1026600071FC2F6800F10806B8F1000F37D028463A
:1026700004F015F898BB05EB4606B3885B0B990090
:1026800001F58072B850BA582A680A44D2F8101579
:1026900041F00101C2F810150122296802FA03F382
:1026A000C1F8143390E7B3F1C06F05D0B3F1007FE8
:1026B00014BF0123022397E7032395E73A462146F7
:1026C000284604F047F80028BBD195F87500174B51
:1026D0009DF8071003EB800003F083FFB1E7D7F804
:1026E000143305EB46059B035CBF4FF40033C7F87A
:1026F0001433AB88C3F38203042B0FD0052B0FD008
:1027000002A80294FEF754F9029BC168D94001F077
:1027100001010231204603F0A4FF55E70321F9E748
:102720000221F7E76FF085004FE700BF0C020020A1
:10273000F8B50126324C334DD4F80C3303F0710355
:1027400043B901252E4C304ED4F80C3303F00C0362
:102750005BBBF8BDB3FA83F30021C3F11F039A00FA
:1027600002F5807292B202F1A04202F58712116066
:1027700006FA03F7042B1268D8B2C4F8087308D01D
:10278000062B10D02B689847D4F80C3303F0710354
:10279000D6E702236B71C4F81411D4F81431202346
:1027A000C4F80433EEE76971ECE7B3FA83F300276A
:1027B000C3F11F039A0002F5807292B202F1A042A7
:1027C00002F58712176005FA03F1022B1268D8B2DE
:1027D000C4F8081310D1D4F84C34D4F84C349B0707
:1027E0000AD10423C4F84054C4F804332561D4F852
:1027F0000C3303F00C03ABE733689847F7E700BFEF
:1028000000E01050981D0020F41D0020F7B5284B63
:10281000284CD3F82C6304F188070EB903B0F0BD3F
:1028200096FAA6F00123B0FA80F08340DA432249F9
:1028300026EA0306231893F85450830019440C2306
:1028400003FB0543DB6873B3D7E8EF3F03EA020CF1
:10285000C7E8EECFBEF1000FF6D1C340DB0719D5B4
:10286000020102F1A04202F56222D2F82435D2F828
:102870002025D1F800C0BCF1000FCED04FF0000CE5
:10288000C1F800C00C2101FB054529690091E968E8
:102890008847C2E705F10C0304EBC30C54F833205E
:1028A000DCF80430E5E70A68002AB6D00B60B4E72C
:1028B00000200E506800002000210E502DE9F0434A
:1028C0000446002693B00DF11F05DFF8788025F04F
:1028D0001F05102201231C4911F8010D013A034480
:1028E0000B704FEA1323F7D1A81902F05DFFA94638
:1028F000074618BBD8E90C321036013342F100020A
:10290000302EC8E90C32E4D154B104F1300299F808
:10291000003014F8011B4B40A24209F8013BF6D1EC
:102920002E46084C0FCE0FC496E80F00203584E8E1
:102930000F0095E80F00103484E80F00384613B0FC
:10294000BDE8F083600200209002002008B5034B30
:102950001B68834201D004F04FFA08BDFC1D002023
:102960000FB430B587B00AAC54F8045B10220021D4
:1029700002A8019404F0B5FC02238DF80A30064B3E
:102980002246294602A8039303F058FA07B0BDE88F
:10299000304004B0704700BF9D0400001FB50A4BD3
:1029A0006A461C6A1023A1682046103903F07DFC9A
:1029B000034628B1227845210448FFF7D1FF0024BF
:1029C000204604B010BD00BF001D0020CE8C0000CA
:1029D00000222DE9F04F8FB00446CDE9082203F024
:1029E000A6FB5E4E00283DD05D4D3368AB4206D15C
:1029F000104609A9FFF716FB08B104F06AFCF36A58
:102A0000AB4205D1012008A9FFF70CFB0028F4D147
:102A1000DDE90832934288BF0993099BA3604FF018
:102A2000000949214F48099DFFF79AFF736AD3F8BF
:102A300004804B4643449D424F4609F10109F9D8B1
:102A4000204603F074FB002836D04FF44072F36D3B
:102A5000B56A534300225033013D42449A420ED29C
:102A6000013DFAE7FFF79AFF0028C6D004F10801FC
:102A700003F031FC0028C0D1A3680993CFE74D458E
:102A80001AD857213848FFF76BFFBA1C08FB05F32B
:102A9000572108FB02F23548FFF762FF0123E3717B
:102AA000334B1A68002A03DD57213248FFF758FFDD
:102AB00000200FB0BDE8F08F356A002D9DD0F76C77
:102AC000002F9AD063682C4A03F0FF2393423CD135
:102AD0002368012B39D138460AA9FFF749FA0028A3
:102AE0008BD19DF82820012A35D0244B2449032A74
:102AF00008BF0B469DF82B20492102929DF82A2001
:102B0000204801929DF8292000921F4AFFF728FFD4
:102B10009DF82830032B18D13846FEF76FFD0028AA
:102B20007FF46BAF384603F0F7FF00287FF465AF02
:102B30003846A16803F0E1FF00287FF45EAF384615
:102B4000FEF7B4F900287FF458AF6379012B40F009
:102B5000A480CB469BE00D4BCCE700BF001D0020BE
:102B60003DB8F396098D0000328D0000618D0000A4
:102B7000FC060020E38D000000010004058D00002C
:102B8000FF8C0000A28D0000928D0000FA8C0000E6
:102B90002368C3F101024A445A4576D3726A012B75
:102BA00052F83B10D2F800A002EBCB0252F8082CEE
:102BB0000491A2EB0A02A1EB0A0105910692079388
:102BC00041D1E268022A38D02846FEF717FD0028D6
:102BD0007FF413AFF06C0CA9FFF7CAF900287FF45B
:102BE0000CAFE279012A11D00E2A3FF606AF8DF81C
:102BF0002820A9682846203921F00F01079B0AAA3E
:102C0000203903F04DFF00287FF4F7AE9DF83330F4
:102C1000012B05D1284603F07FFF00287FF4EDAE9D
:102C20002846A16803F069FF00287FF4E6AE284635
:102C3000FEF73CF900287FF4E0AE3846FEF7DEFCF4
:102C400000287FF4DAAEAB68059A9A42BFF4D5AE9D
:102C50009A44049BAAEB030AD0453FF6CEAE134636
:102C600029462846069ACDF80080FEF799FC0028F0
:102C70007FF4C3AE2046FFF71BFA236801332360BD
:102C800018B13C4A1368013313600BF1FF3BBBF1F1
:102C9000000F7FF47DAF0123236002234FF0010A70
:102CA0006371CA453FF6FCAE236853455ED8726A2D
:102CB0004FEACA0352F83A10083BD2F800B0079125
:102CC000D158326DD358059313680693DDE9053268
:102CD0009B1A04932379012B46D1AA68A1EB0B031D
:102CE0009342BFF48AAE5A44521A90453FF685AEDD
:102CF00029463846049ACDF80080FEF751FC00289A
:102D00007FF47BAE2046FFF7D3F90223237118B17D
:102D1000184A136801331360BB68049A9A42BFF4DF
:102D20006CAE069A1A441346059A9B1A98453FF6CC
:102D300064AE079A39462846049BCDF80080A2EB82
:102D40000B02FEF72DFC00287FF457AE2046FFF75C
:102D5000AFF92368013323600123237130B1054AA1
:102D600013680133136001E0022BD5D00AF1010A88
:102D700097E700BFFC0600202DE9F743DFF8D49069
:102D800007460E46C84641B10024304603F0CFF94D
:102D900028B123461C46002124E00B46FAE7FFF742
:102DA000FDFD20B101A903F096FA054638B10120D6
:102DB000012C01D107B9002003B0BDE8F083D8F899
:102DC0002430019A596803460B449A4205F10105E3
:102DD000FAD87379012B0CD1E4B932682346AA42A0
:102DE00098BF21462C2202FB0383186AB0B904F075
:102DF00070FA022BCDD13368012B04D9AB42C8D86D
:102E000084F00103C7E7C4D134B13379023B18BF62
:102E10000123C0E72346BEE72346E3E720234A46D3
:102E200003F043FA0028C2D12EB9012CC3D00123EC
:102E300009F12C09AEE7D9F80020074B9A4205D1D9
:102E4000012CB8D0012409F12C099EE74FF0FF3086
:102E5000AEE700BF001D00203DB8F39630B585B049
:102E60006946072003F00BFE044610B1FF2005B0B1
:102E700030BD0D2002A903F002FE012840D12246F8
:102E800049213348FFF76CFD324B8DF80C4002931B
:102E900000229DF800109DF808002F4C2378042B89
:102EA00006D0052B2FD14B1E18BF0123002B39D084
:102EB0006378042B05D0052B2CD1431E18BF0123AA
:102EC00083B3A378042B03D09DF803509D4229D1EE
:102ED000E378042B03D09DF80B509D4222D1237937
:102EE000042B1BD16279022A28D11C4B1C480022DA
:102EF0004921FFF735FD6079831E022BB7D9B5E76D
:102F00000028C5D0B2E7A3EB010CDCF1000343EBD2
:102F10000C03CBE71D1A6B426B41D1E79DF80250C1
:102F20009D42DFD00132032A04F10604B6D10D48D8
:102F300000224921FFF714FD012098E7032A05D05C
:102F4000094B0A49042A08BF0B46CFE7084BCDE7D7
:102F5000358E0000030103039F940000128E0000D1
:102F6000808E0000A48E0000238E00001C8E0000C6
:102F7000178E000030B5394B0C465B6800218BB0D2
:102F8000C3F3080381F31188BFF36F8F02F07F450D
:102F9000B5F17F4F08D102F00C05082D04D012F0D6
:102FA000080F0CBF014621460022033B8DF8072085
:102FB000032B03D8DFE803F00A474B4400209DF8B9
:102FC0000730002B47D102A903F0AEF9234BDA6A90
:102FD0009007F3D4DA6A002AF0DBDA6A5200EDD502
:102FE0005A69886942F480725A61BFF34F8FBFF308
:102FF0006F8F5A6930F8020C22F480725A61BFF365
:103000004F8FBFF36F8F4DF60272904208D09A6ACD
:10301000D2B23AB101200DF10701FEF785FACEE7F1
:103020000868CCE79A6A12F47F4F05D001200DF1B1
:103030000701FEF743FAC2E79B6AB3F5803FBDD3B1
:10304000FEF70EFABBE700200DF10701E5E70020CF
:103050000DF10701EDE70BB030BD00BF00ED00E062
:1030600072B6002383F313884FF0FF300C4A03F14C
:1030700020010133102B42F82100F8D100234FF03A
:10308000FF30074A03F160010133102B42F82100A1
:10309000F8D162B6BFF34F8FBFF36F8F704700BF99
:1030A00000E100E03B4A08B53B4B22F07F029A600A
:1030B000BFF34F8FBFF36F8FD3F88820374822F4C8
:1030C0007002C3F88820364A0021121A04F009F968
:1030D0003448354A3549121A04F025F93448354A3E
:1030E0003549121A04F01FF940F20F14002210B2F1
:1030F00001210132FDF724FBA242F8D10020FDF7A7
:1031000063FF2E4B03F5006282F3088883F30A887D
:103110000024E022204B012083F82220DC771C765B
:103120005C769C7683F820405A6A42F4E0225A6228
:1031300083F823405A6942F010025A615A6942F4F6
:1031400080625A615A6922F008025A6110221A619B
:103150004FF0FF329A62DA62FDF736FF0220FDF788
:1031600033FF84F30B88164B164DA3F5205686F3D8
:103170000B8883F3098800200449884720462146AC
:103180002246A84702488047FEE700002F6E000055
:103190003D6E00000000000000ED00E06002002035
:1031A000482700206800002060020020909D000059
:1031B0004000002064000020689D0000484F00206F
:1031C000484F00201D4D000008B50548FFF7C8FB1B
:1031D000002383F31188BFF36F8F0423184602DFA7
:1031E000CA8E000008B501233C4A3D48C2F80038A9
:1031F0003C4AD2F840231C2A04BF3B4AC2F80C3494
:10320000FDF786FE0830FDF783FE0830FDF780FEEF
:103210000830FDF77DFE00F5F470FDF779FE334AC6
:10322000D2F88C3043F44063C2F88C300022D300D3
:1032300003F57F0303F54043D3F8001401310AD0AE
:10324000D3F8001439B1D3F800140132D3F80434A0
:10325000402A0B60EBD1214BD3F84024002A38D010
:10326000FDF746FE48B11F4BD3F83423204B9A425A
:103270009EBF1A4B1F4AC3F84026FDF739FE18B10E
:103280001D4B1E4AC3F8AC27FDF732FE48B134226D
:10329000124BC3F82426D3F83C2622F40022C3F8AC
:1032A0003C26174B1149D3F80026D20744BF6FF0D4
:1032B0000102C3F800260323124AC2F81835D1F8D8
:1032C0008C3043F44063C1F88C300023C2F8A03541
:1032D00008BDC822C3F84024C2E700BF0000125056
:1032E00000C50D5000C0FF000030055000ED00E0AB
:1032F000001D0A1840E0A91E00A0085078000A042A
:1033000000E0105000B00450074A1368591C1160C7
:103310004BB9064A4820D2F8003443F00703C2F8FC
:103320000034FDF7EDB9704700070020008004501D
:1033300010B5124B1C68013C1C60ECB94820FDF72D
:10334000EDF907220E4BC3F80823D3F8002422F02E
:103350000702C3F80024C3F80041D3F80021C3F8E2
:103360000441D3F804214FF48072C3F80841D3F824
:103370000831044BC3F8882110BD00BF00070020AE
:103380000080045000E100E0302816D00DD812383B
:10339000C0B2192806D801231C4A83401A408ABBB0
:1033A000DB071ED46FF086007047412821D04228E9
:1033B000F8D1FF291FD1164B21E0B1F5A07F21D014
:1033C00004D8E0291ED0B1F5807F04E0B1F5C07FBC
:1033D00018D0B1F5007F0CBF6FF085006FF086004C
:1033E0007047B1F5C07F0DD0EBD940F20923994267
:1033F000F1E7FF2902D0B1F5E07FECE7054B0020B3
:10340000136070476FF08500704700BF20022102F3
:10341000747700006877000010B51E4C4368B4EB69
:10342000132F4FEA132215D142691B4B9A420CD03D
:1034300003F5FF437D331344012B03D80388B3F511
:10344000105F1DD06FF0860019E047F2121302885A
:103450009A42F6E7114B9A42F4D1028802F44F43A4
:10346000B3F5824F0ED1438844F2121007338242E3
:103470004FEAD30301D15B00013300200B6010BD84
:103480000223FAE7B2F5885FFAD143880733DB08F5
:10349000F3E700BF004E800001C0FF7F4B4E80006D
:1034A00038B5044602F038FE25688DB94FF4127223
:1034B0002946201D03F015FF084B284663600123B1
:1034C00084F848328023C4F8C4310523236038BD12
:1034D000204603F0D5FC6FF08800F8E7EC8A000086
:1034E00008B5FDF705FE01230360104B0A6832B9E9
:1034F000D3F80C211AB9D3F80821002AF6D00B68AA
:103500007BB90B4B99420ED0A3F58473D3F80831E5
:10351000002B0CBF4FF0FF306FF00200FDF7E8FD0D
:1035200008BD0020FAE74FF0FF30F7E700500450E5
:103530000851045038B5064D0C46C5F8000505493C
:103540000548FFF7CDFF10B9D5F80835236038BD21
:1035500000500450105104500C50045040292DE9E3
:10356000F04104460E462FD80378033303F00303DB
:10357000012B21D86FF0210003F0E0FB054640B994
:1035800013493246204603F0CEFE4021104803F096
:103590006BFC2846BDE8F081637838462B44C8F8B8
:1035A0000035FFF79DFF68B901352378C3F3820327
:1035B0009D42F1D30020DFE70025DFF8188006499F
:1035C000064FF2E70220D7E76FF08905E1E700BF79
:1035D00000000020005004500451045004500450D6
:1035E00010B50446012002F0D7F9064B0649C3F88E
:1035F00000450648FFF774FF0446002002F0CCF9AE
:10360000204610BD0050045008510450085004508A
:1036100010B5F82003F05EFC18B9F92003F05AFC4D
:1036200010B16FF0920010BDF823094C09490A4807
:10363000C4F80035FFF754FF0028F2D1F9230648FB
:10364000C4F80035FFF74CFF0028ECD0E9E700BFD5
:103650000050045004510450045004502DE9F04F20
:10366000AA4CA1B062780DF1770323F01F03022A60
:103670000193237801D1072B22D013F0010509D142
:10368000DFF88C92A349D9F800208A421ED143F07A
:103690000103237023789F0706D401219E4A43F03B
:1036A000020382F880152370627823781AB9DE0746
:1036B00044BF022262705D075CBF43F004032370C5
:1036C0004FF0000A504621B0BDE8F08FFFF71CFE16
:1036D000924B01211D60924B48201D60914AFDF7DD
:1036E0002FF8914B914952F8040B43F8040B8B428D
:1036F000F9D100238E4DEB668E4B2B6003F5C04352
:103700006B602B6D0BB9FDF79BFD6B6D1C22B3F548
:10371000007FCCBF4FF480634FF40073002103A8F7
:10372000AB6003F0DEFDF82003F0D4FB28B9F920EC
:1037300003F0D0FB002800F0DB807F4DD5E90C3290
:1037400013432AD0D5E90C32023342F10002B2F51C
:10375000803F7ED220260DF1280B102EB0464FF070
:10376000010228BF4FF010081027744911F8010D0D
:10377000013F02440A704FEA1222F7D1019802F089
:1037800013F8824670BB002E7CD1D5E90C210132A2
:1037900041F10001C5E90C21DFE7AA6B684B9A42B1
:1037A000D8D000231A46EA540133402BFBD10AAE8D
:1037B000304601F049FF80B93046FFF77FF8002816
:1037C00045D103460246F2540133302BFBD100238E
:1037D0000122C5E90C235A4BAB6303F0AFFA8246D2
:1037E0000028AFD0FFF7A4FD2378580743F001016C
:1037F00044BF23F0040343F001012170890719D568
:10380000454D00262F464FF001094FF0030828468A
:10381000C5F8209085F81C80013603F0AAF8202E08
:1038200005F12C05F3D1002387F88035237823F0A8
:10383000020323700023042142486370FDF72AFC31
:103840002378DA0744BF23F0010323703AE70E2000
:10385000C3E70AAE304601F0F7FE80B93046FFF705
:103860002DF882460028BDD102460346B3540132EA
:10387000302AFBD100220023C5E90C236AE76FF050
:10388000920AAFE742465846019903F04CFDD5E94C
:103890000C21013241F10001B6EB0806C5E90C210B
:1038A000C3447FF45AAF3846FFF708F88246002831
:1038B00098D14FF4807302A8029302F0A5FC029BFA
:1038C000DFF884E00593214BF8210693204B0AAAE8
:1038D000CDE903E31F4B03A8089302F067F8824683
:1038E00020210AA803F0C0FABAF1000F7FF47AAFE2
:1038F000FFF78EFE8246FFF71BFDBAF1000F7FF443
:1039000073AF044BC9F800302378C0E6F80C0020F0
:10391000E80100201173650074070020CC0200202C
:10392000C80200208077000000C080511CD3805165
:103930000407002000208051600200209002002037
:10394000B4A5B4A5FC0C0020002400010010C004A4
:10395000014B4E80F800FF7F70B588B001AE182291
:1039600005460C463046002103F0BBFC012044EA2A
:1039700005240794059002F00FF8BA2309480A4974
:10398000C0F80035C0F80465FFF7AAFD0446002022
:1039900002F002F8002C0CBF20466FF0920008B035
:1039A00070BD00BF00500450005104502DE9F34792
:1039B0000E46DDE90A79694682461446984603F0C8
:1039C0006EFA002852D1BAF1F80346F1FF36022B05
:1039D00076F10006C0F0B68003F095FA002845D1D4
:1039E0009DF8006016F00F0240F0AF80BDF8023085
:1039F000C3F3C113013BDBB2022B00F2A9805A4989
:103A000006F03006C95C594B102E43EA010363608F
:103A10002FD1574B2360204601A9FFF7FDFC28BB9F
:103A2000019BBB4200F29D8044F212122188914218
:103A300004BF042208F8012BC9F800309DF80030BB
:103A400098F80020C3F3011363F3010288F8002003
:103A50009DF8022008BF07F1FF37C2F30212042AC3
:103A600049D8012A4BD851D06FF0980002B0BDE878
:103A7000F0879DF80310134610463E4A4908F9B9ED
:103A8000019001A802F0C0FB9DF80230019A03F0FA
:103A90000F010A29A26061D147F2421112F4A05F1E
:103AA00044F2421218BF0A46C3F302132280324A7C
:103AB000013BE260032B0FD8DFE803F00C16181A65
:103AC000CD0704D5062B46D852F823502843490881
:103AD0000133D4E7802363809DF8003013F0300F6A
:103AE00099D16FF09600C1E7C023F4E7FF23F2E716
:103AF0004FF48073EFE7052AB6D1032206E044F2C3
:103B0000121322889A4214BF02220422202E00D1CE
:103B1000023298F8003088F801A062F3840388F834
:103B20000030238803F44F42B2F5824F06D1394664
:103B3000404602B0BDE8F047FFF710BDB3F5885F1F
:103B400094D1F4E76FF0860090E76FF088008DE77E
:103B50006FF091008AE76FF0830087E76FF09200C3
:103B600084E76FF0890081E7B1940000004B4E803C
:103B7000011080014C7700000008000600232DE9A9
:103B8000F0417F4D0B6095F8802507460E468CB0BE
:103B9000002A00F0EF8000F140421F2A66D82C2353
:103BA00003FB02552B7F022B55D031460020FDF739
:103BB000CDFD0446002870D10122336801465F61C3
:103BC000336805A85A6035681C2203F08AFB6F69C8
:103BD0006C4A07F14043A3F580539342CDE9024478
:103BE00000F2BF80684B9F425BD001339F4258D0A8
:103BF000023B9F4255D0FFB2384604A903F04FF96B
:103C00000446002840F08580BDF81230C3F3C1138C
:103C1000013BDBB2022B00F29E805C4AD25C5C4B23
:103C200013436A690693DBB20A9203B90A90002330
:103C3000CDE900443846194605AAFFF7B7FE10F152
:103C40008A0F044635D03068002C62D102F091FE14
:103C50006FF096042AE06B699842A6D1284602F0DC
:103C6000ADFD0446B0B93560002416E0002840F3ED
:103C700084802A46117F022902D151698F4205D0E2
:103C80000133202B02F12C02F4D18EE72C2202FB0F
:103C90000355E3E710F18C0F87D020460CB0BDE848
:103CA000F081306802F065FE6FF085040023336018
:103CB000F3E7069B374A4FEA1328B2EB132F02D0E3
:103CC000354B984547D102A905A8FFF7A5FB044647
:103CD000F8B928460299FDF7F5F90446C8B9D5E9BF
:103CE00009322C49884502D04B31884518D103A9A7
:103CF000CDE900213846002105AAFFF757FE04460A
:103D000088B1686A10B1A96AFDF7CEF90023C5E948
:103D10000933306802F02DFE14F18C0FC6D123E078
:103D20006FF08B04EDE7039B05ACAB620FCC0FC5C6
:103D300094E8070085E807003068083002F064FA6C
:103D400033681A7F012A12D0306802F037FD04462A
:103D5000002889D0AAE7306802F00BFE6FF08604D5
:103D6000A4E7284602F005FE6FF087049EE70222D2
:103D70001A77E9E76FF088048FE76FF087048CE724
:103D800074070020FFDFFF3F02C0FF7FB1940000F7
:103D9000004B4E80004E80004B4E800038B52B4BC0
:103DA0001B7843B12A4B1A68002A41D01A68196857
:103DB0000021196032B9BFF35F8F4FF0A3439A6AB5
:103DC000BFF35F8FBFF35F8F4FF0A344E36BBFF38D
:103DD0005F8F12F0240F03F023032BD0BFF35F8F0C
:103DE000E569BFF35F8FBFF35F8F10236363BFF39A
:103DF0005F8F184B1868184BB0FBF3F0174B43F06C
:103E000001039847BFF35F8F00236363BFF35F8FA6
:103E1000BFF35F8FE36BBFF35F8F5B06F8D425B111
:103E2000BFF35F8FE561BFF35F8F6FF01F0038BD99
:103E300020BFB8E74FF0FF30002BF8D1BFF35F8F02
:103E40002063BFF35F8F1846F1E700BF46270020CD
:103E5000CC0200201402002040420F0040750000F8
:103E6000BFF35F8F094A1368BFF35F8F43F480711C
:103E7000BFF35F8F1160BFF35F8F23F48073BFF3D5
:103E80005F8F1360BFF35F8F704700BF00108051DA
:103E9000BFF35F8F4FF0A3430022DA61BFF35F8F60
:103EA000BFF35F8F4FF0FF321A63BFF35F8FBFF333
:103EB0005F8F3422DA61BFF35F8F0122014BC3F8B9
:103EC0000423704700800450B1F5DE7F38B5044606
:103ED00024D303681D6815F0400522D1FFF714FABA
:103EE00001212176FFF7D4FF0F4B2846636023683A
:103EF0000E4A1B68C4E90355A36204F12C03236234
:103F000004F128036362E3671323C4E9212304F166
:103F10008C03E361064BA160636138BD6FF0220042
:103F2000FBE76FF00200F8E73C7700000400002098
:103F3000151100000368DA68D203FCD4DB6824485A
:103F40001840B0F5806F2FD017D840282ED008D851
:103F500010282DD020282DD0003818BF0120400077
:103F60007047B0F5807F27D0B0F5007F26D080283D
:103F700008BF0B2018BF02207047B0F5804F1FD03C
:103F80000AD8B0F5805F1DD0B0F5005F1CD0B0F549
:103F9000006F08BF0620EDE7B0F5004F16D0B0F572
:103FA000803F08BF0320E5E7112070470A207047D3
:103FB0000C20704709207047082070470720704781
:103FC0001420704705207047042070470F20704769
:103FD000F0FF010038B5114D0446C5E90415FFF79F
:103FE00093F9042200210E4BC3F804230D4A2B68D9
:103FF000D868C0030AD403F580535B6A13F4A02386
:1040000004D1C4E90053204638BD20BF1368002BFB
:10401000FBD0136813681160E9E700BF04070020B4
:1040200000800450C80200200422054B10B5C3F8DC
:1040300008230446FFF77CF900232361A36410BD25
:10404000008004502DE9F04F90469B464269036979
:10405000D0F84CA09D680446D0E901730E46D2F812
:104060006C9085B0BAF1000F06D0FFF7DDFF102588
:10407000284605B0BDE8F08F4F490A6D22B901937B
:10408000FDF7DEF84C49019B326810064CBFCA6D43
:104090004A6D7068904204DD2046FFF7C5FF0D258C
:1040A000E6E72269E060B9F1000F02D0116948EA41
:1040B0000108316812680138114341EA0021226881
:1040C00041EA0801516022691268D10002D5E26814
:1040D0009A1A17449DBB336813F4700F3AD0B9F1A4
:1040E000000FC5D023691B69002BC1D0D9F8083057
:1040F00048469847D4E90167CDE902012369E2689F
:104100001B6806EB071613F0805F42D0C1F307610E
:1041100000F03F0341F0010143F020038DF80F1040
:10412000B01AA2F108018DF8083002F057FC083EE1
:10413000082230460DEB020103F05EF898E7EA072B
:1041400048BF4BF82A704FEA650548BF0AF1010ADB
:104150001F44BFE72369D6F808801B68D4E9017BB8
:10416000DB0042BF7368ABEB0303FF18B8F1000F2D
:10417000B5D04FF0000ABAF1060FB0D0414638462C
:10418000726803F039F873685F4498440AF1010AD1
:10419000F1E7C1F3056141F02001F61B40F0010396
:1041A0008DF80F1006F10800A2F108018DF8083013
:1041B00002F014FCBCE700BF040700202DE9F04F1B
:1041C0000024ADF5617D02AFC7E9091007F59670CF
:1041D000FFF766F9BB6ABA6A1B895289DFF8288241
:1041E0001344BA6AD6681E44A64200F2BB8007F1A7
:1041F000AC0107F5967002F00BFF07F5967002F020
:104200003FFE7B6A002B00F0BE80BB6A786A1C8987
:10421000DB6807F596721C442146042302F045F83A
:104220007861002840F0AF8046F60812B7F82C11EC
:10423000BB6A91425B8940F0B780B7F82E11994272
:1042400040F0A1800423786A07F59672214402F0B9
:104250002CF8002840F0978046F60713B7F82C2179
:104260009A4240F09080BB6A68485B89C16D2344E4
:10427000FB61FA69B7F82E3113443B61436A5A680F
:104280004FF4407303FB012153424F311940836ABD
:10429000406D013B534342435B1A521A934228BF7D
:1042A00013463A699A426ED8231D4FF0FF34584D99
:1042B0003B623B693A6A934240F28E84BB6A5B89F7
:1042C00023B1FB69934204BF04333B620423D7E963
:1042D000081007F5967201F0E8FF002853D13A6AFA
:1042E000B7F82C31111DB7F82E21FA62FA698A420B
:1042F00008D84FF6FF76474830F8022BB24242D03A
:104300009A42F9D1122B53D0242B00F08780012B35
:104310006FD1FB6A402B36D8786A07F16C0201F046
:10432000C4FF80BB07F59670FFF7BAF82C223A4914
:1043300007F5967002F0A7FE07F1EC0107F59670FD
:1043400002F066FE07F5967002F09AFDFA6A07F130
:104350006C0107F1EC0002F0F3FF041E18BF01240A
:10436000644246E0351BB5F5807F28BF4FF4807569
:1043700042462B462146786A01F097FF60B107F567
:10438000967002F07DFD224DFCF780F8284607F577
:104390005F77BD46BDE8F08F2A46414607F5967027
:1043A00002F071FE2C441FE7002B3FF455AFEAE703
:1043B000FB6A402BE7D1786A07F16C0201F075FFC8
:1043C00001460028DFD1FCF759F80B4607F1AC068F
:1043D00007F16C0216F801CB12F8011B8C450ED1C7
:1043E0000133402BF6D1FCF751F8FEF7AFFA012369
:1043F0007B61FB6A3A6A04331A443A6259E7FCF774
:1044000045F8FEF7A3FABEE7461E0020001D002077
:1044100055555515A08C000006930000002CE8D1DE
:10442000FB6A402BAFD1786A07F16C0201F03DFFC7
:104430000028A8D1FCF722F8F860FCF71FF86949BA
:10444000B8607963302307F140022C3107F1340062
:1044500001F0C6FE00287BD17A6B3B6C07F134007B
:1044600002EB03084146302307F1500201F0B8FE89
:1044700000286DD17E6BA8EB0603002B68DD337836
:1044800007F1F002C7F8EC303B6D07F134001E4431
:104490003146062301F0A4FE002859D17C6BD7F8E1
:1044A000F050C7F8F44063199E427B633AD10C2167
:1044B00007F59670FCF7EEFD032D49D12A462046FC
:1044C000494902F03DFF002842D12B46414607F101
:1044D000400207F1340001F083FE002838D13B6C24
:1044E000B3B37C6B03F1FF39C7F8409094F800A098
:1044F000BAF1000F2CD12344661C98457E6327D166
:10450000B9F1200F24D11C22514607F1500002F0CE
:10451000E8FEFFF7A3F80246E0B145213348FEF775
:104520001FFA15E0625D0133C7F82C21314607F50B
:10453000987207F134007B6301F006FE40B97B6B93
:10454000D7F83021C7F8343113449E427B63B3D08F
:10455000274DA8E244F24213A7F850304FF400630D
:1045600007F59670C7F82C3101F04EFE214B00681C
:10457000FB65B7F85230B865C7F840A0C7F8EC90B3
:1045800013B1FF2B40F03E8104F1200214F8011F0B
:1045900094424AEA010AF9D1BAF1000F00F03281DF
:1045A00097F854807A6EB8F1000F05D0B8F1FF0F7C
:1045B00024D16FF0860A0CE020F0031020F47F4035
:1045C0001043F6D14FF6F872934240F2D5806FF067
:1045D000850A386C08B102F0CCF9524645210648EC
:1045E0009DE700BF069300009B940000D38E00005F
:1045F0005555551500080006F38E0000002AD8DD39
:1046000020F0031020F47F400028D2D14FF6F8723A
:104610009342DCD807F14001FDF798F8B861002813
:1046200040F0AD803C6C07F1500EA446BEE80F0090
:10463000ACE80F009EE807008CE80700B8F1000F17
:1046400002D1D7F82C316361A26A7B6D002A00F099
:1046500099802246786DDFF8B0C2D4F82490BCEB84
:10466000102F52F8283F4FEA102100F0B480A748DD
:10467000814200F0B08000299BD107F59678CDE902
:10468000002831464A4607F1500001F0A7FA10F120
:10469000860F824640F0AA80B7F8503003F4E0421B
:1046A000B2F5805F93D14FF48072C7F82C2141F2AC
:1046B000062293428BD8B3F5905F80F0828041F25E
:1046C0000102934202D0B3F5885F80D106F1200346
:1046D00056F8042B9E4249F8042BF9D12023A362FB
:1046E0006288D7F82C31002A40F0858063804FF62D
:1046F000F87293423FF66BAFB7F850301BB1228887
:104700009A427FF456AFB7F852301BB162889A4292
:104710007FF44FAF237FD4F81490012B6FD1022385
:104720004846237707F13801FFF728FA02460028A8
:104730006BD045217648FEF713F9B9F1000F3FF42D
:1047400007AF484607F1EC01FFF718FA804668B951
:10475000D7F8EC40237F022B00F0B581204602F011
:1047600028F9002840F0F5816FF09608424657215D
:104770006848FEF7F5F8C0E107F596704AE7D7F804
:1047800018A026E71B0A09D12046D7F8EC10FCF741
:1047900099FC824600283FF45CAF1AE7C7F8EC208A
:1047A000594A934203D04B3293427FF402AF07F150
:1047B000EC0107F15000FEF72FFE82460028E3D0FF
:1047C00007E76922A3F590539BB222FA03F3D907B6
:1047D0007FF5FDAE7AE707F59671CDE9002107F187
:1047E00050004A46314601F0F9F98246BAF1000F0D
:1047F0003FF476AFEDE693427FF4DBAE77E76FF000
:10480000960AE6E66FF0860AE7E6D7F838A0DAF807
:104810000830BAF800B01A050BD55846DAF80C1073
:1048200001F0B2F858B95846DAF8101001F0ACF8B7
:1048300028B9504602F0BDF86FF0840279E7DAF843
:1048400004103148DAE90932B0EB112F7A604FEAEF
:1048500011260AD02D498E4207D036B1504602F0BB
:10486000A8F86FF0850B5A4663E70BF44F41B1F59A
:10487000824F43D12BF0FF04B4F5824FE84602D0BB
:10488000B4F5E24F3AD15FFA8BF04228BAF8021041
:104890002CD101F10802D208073222F00702ADEB59
:1048A000020D0022FA6307F13C023B60FEF76CFD4B
:1048B0000DF1080A8346002840F0CD80124A3B687B
:1048C00096421AD0B4F5824F26D1194650467A68DE
:1048D00002F029FDFB6B5B68202B00F0C580C5460C
:1048E000B86B02F066F86FF0940BBCE7CA1D412864
:1048F0004FEAD20204D1002ACED1C546B86BAEE74A
:1049000052000132C8E700BF004E80004B4E8000CD
:10491000158F0000438F00003B64202307F1EC0B50
:104920007B6407F144020123CDF800B007F1400198
:1049300007F5967000F090FF0446002840F0848050
:104940009BF8003007F22B1123F007038BF800309F
:104950009BF81F3003F07F0343F040038BF81F30B8
:104960001F23CA1A013B1470FBD29E4907F148006D
:10497000FFF730FBD7E91264002C65D122463046A0
:10498000994907F59673FFF75DFB044600285BD154
:1049900020225946D7F82C0102F02EFC2022D7F80D
:1049A000300107F5867102F027FC304602F032FC38
:1049B000FFF7C0FA33690446D6E9012059681B683D
:1049C000DB0002D5F368C31A1A4400230DE011F08E
:1049D000010F08D00B2B01D902F07BFC03F1060C70
:1049E00046F82C200133024449100029EFD1D6E9C2
:1049F00006E307F5867C03F1200B624618685968C8
:104A0000083303C25B459446F7D19EF8002097F81F
:104A10002B31304643EAC21387F82B31FFF704FBF2
:104A200094B9524607F5867607F5967C334603CB54
:104A30006345106051601E4602F10802F6D1402124
:104A400007F1EC0002F010FA204602F077F98346F5
:104A500000283FF43FAF1BF1860FC5463FF44EAF31
:104A6000B86B01F0A6FFFEE6402207F16C0350464A
:104A700007F1AC0100F01AFF02F060F910F1860FA7
:104A80008346C5463FF43AAFB86B01F092FF024649
:104A9000BBF1000F7FF4E7AE00287FF44AAEB9F116
:104AA000000F0DD1514DFBF7F1FCB868FDF74EFF3B
:104AB000FBF7ECFCF868FDF749FF4FF0FF3498E492
:104AC0000123BB613DE6032361682377CAB2FF2A55
:104AD00007D1204601F06DFF00283AD16FF084081D
:104AE00044E66669424806F14043A3F58053834299
:104AF00007D9204601F05DFF58BBBB69002BD1D11F
:104B000026E53C4BB3EB112F06D0204601F051FFB8
:104B1000F8B96FF0850829E6032ADAD0F6B23046F4
:104B200007F5967102F0BBF9804660B997F82E310F
:104B3000D7F82C21C3F30213042B0CD8012B3ED839
:104B400045D06FF09808204601F033FF00283FF46D
:104B50000DAE80460AE6052BF3D102F03003202B80
:104B600000D102354FF00009DFF88CA02349DFF8AF
:104B7000908009EB06034046CAF80035FEF7B0FC0A
:104B800038BB09F10109A945F3D1FEF741FD18B978
:104B900040211C4802F068F929463046FEF7DCFE49
:104BA00080460028CFD102F0AEF98046204601F0C1
:104BB00000FF0028CDD1B8F1000F9ED0D6E544F219
:104BC000121325889D4214BF02250425C5E701253F
:104BD000C3E76FF08408E9E77B69002B7FF4D4AB6F
:104BE000FFF7D1BB6875000074770000AAAAAA1A63
:104BF000FFDFFF3F4B4E8000005004500451045033
:104C000004500450000000202DE9F8432C274743AE
:104C1000DFF8E880064608EB0704256A89460DB9E7
:104C200002F057FB04222146284601F0AAFC10B9E5
:104C30002169CB061ED5BEB12846FCF7DFFC99F8EA
:104C40000730042B0CD1D8F820000028E8D0FCF75E
:104C5000D5FC024640B949212948FDF781FE03E011
:104C6000FEF7FCF80428EED02649FBF70FFC0846B7
:104C7000BDE8F883206A0028D2D058F80720224BDC
:104C80009A4205D0002E30D1204A45212048E4E741
:104C9000E26823899B18F5D26289D218F2D2836820
:104CA0009A42EFD240F60C631942EBD1FBF7E6FBD8
:104CB000216A07460029B3D0FBF7E0FB8046204677
:104CC000FFF77CFA01464046FDF740FE114B994242
:104CD00005D13846FBF7DAFBFDF738FEC5E7384665
:104CE000FBF7D4FBFDF732FECCE70023AA68194698
:104CF000284601F0FFFD084AC7E700BF001D00205D
:104D0000738F000088EACD1F3DB8F396618F0000D5
:104D1000B28F0000AAAAAA1A698F000001262DE905
:104D20008048AA4B93B003201E70FCF74DF9A848A9
:104D3000FDF716FEA748FDF713FEA748FDF710FE86
:104D40000420FCF741F94921A448FDF709FEFBF7CF
:104D500095FBA34C059060220021204602F0C1FA89
:104D6000FBF78CFB04F1200106900720FBF7AAFC5F
:104D7000002840F0E3800D2004F14C01FBF7A2FC79
:104D80008046002840F0DA804FF48075954A07206D
:104D900002F500630EA9626223650E9501F060FDC5
:104DA00068B32A4657219048FDF7DAFD01238C4A63
:104DB0008DF83F3082F85830894F97F85830FF2BE4
:104DC00000F0BB810021012B884E0C9140F036820F
:104DD000FBF754FB002105460846FFF715FF814607
:104DE0002846FDF7B3FDB14540F02E820C9B013300
:104DF0000C930C9B012B00F03F8201F0FDFF0E9BFA
:104E00000D20226D0EA9A3620E9501F029FD78B147
:104E10002A4657217448FDF7A3FD84F85860002105
:104E20000846FDF7A9FF58B1002257217048BBE79B
:104E30000E9B6365236AD86801F0F3F9E065EEE73D
:104E4000A66A656DAE4207D06B1C9E4204D0572106
:104E50006848FDF785FDA9E7B6F5807F70D800208A
:104E60000746636A226D0433043285426BD1236A9C
:104E7000D86801F0D6F9E36CD86801F0D2F9AE42F7
:104E800005D9636A03EBC5035B68BB4261D10123AB
:104E90000E9303F101230F930023206A0AA9CDE9A1
:104EA0001033FDF765F8002848D19DF82820012A25
:104EB00054D0514B5149032A08BF0B469DF82B2073
:104EC000492102929DF82A204D4801929DF82920FF
:104ED00000924C4AFDF744FDE06C0CA9FDF748F840
:104EE000824658BB9DF83020012A39D0424B4349B5
:104EF000032A08BF0B469DF83320492102929DF8F2
:104F000032203F4801929DF8312000923E4AFDF741
:104F100027FD9DF82830012B24D19DF82A30032B42
:104F200020D19DF83030012B1CD049213748FDF7A6
:104F300017FD0223266A1193002E71D102F0C9F9E0
:104F40005721334885E753F8307052F830108F42BC
:104F500002D057212F487CE7013086E72E4BADE782
:104F60002D4BC8E749212D48FDF7FAFC002311938A
:104F70000EA801F0DCF880F001000EA9C0B2FDF728
:104F8000FBFE00287FF450AF0EA801F0D0F8144DBE
:104F9000002840F0E4800EA8FDF71AFD0028CDD1CE
:104FA0009DF83F30DA1E012A85F8583000F2CA8099
:104FB00001F0C0FD9DF83F30002840F0B080023B7A
:104FC000022B40F2B28095F85830BEE04627002010
:104FD000DA8F00000B9000003E9000006C90000003
:104FE000001D0020000D002085900000AAAAAA1A2A
:104FF000C7900000F3900000058D0000FF8C0000BA
:10500000A28D000086910000928D00009491000016
:105010002B9100005A910000FA8C0000B39100001F
:105020003378072B01D00D2B75D1F0684FF4407900
:10503000E56D01F0F6F809FB00F0B76850308742E3
:10504000FFF47CAF40F2FF235FFA85FB03FB0B7795
:105050004FF0FF3501233F1A0793394601233046AD
:105060000CAACDF8209001F020F9031E09F1FF39B8
:10507000099350DB012230460CA901F082FA099B0A
:10508000A8B3079A934201D00AF1010AA7EB0B07D4
:10509000B9F1000FE0D1BAF1010F03DD45217848E5
:1050A000FDF75EFC6A1C07D0FF2D26DC40F20113E1
:1050B00001350E95ADF83C30B1680123203921F05F
:1050C0000F0130460CAA203901F0EFF818BB01227D
:1050D00030460CA901F055FA10B101238DF830309B
:1050E0009DF8303003F00F038DF83F3040E7089A09
:1050F000B5F1FF3F08BF1546C8E70223A5F5807547
:105100008DF83D306B1005F00105013301350E932C
:105110008DF83C50D0E7002257215A4844E6FF2240
:10512000023B022B85F8582007D801F01BFD002810
:105130003FF449AFFF2385F8583045215248FDF729
:105140000FFCFBE69A1E022AEFD9FF2BF5D00021B7
:105150000846FDF711FE00283FF428AEEEE69DF864
:105160003F60DFF82891012E32D1FDF777FE831ED4
:10517000022B82461AD8FBF781F90EA90746304662
:10518000FFF742FD02463846FDF7E0FB4A4517D1DE
:105190005FFA8AF085F858008DF83F00012832D870
:1051A0003FF40AAEFF2385F8583005E6C0B2042864
:1051B00085F858008DF83F00F0D905281AD0F1E79E
:1051C000334B9A4211D185F858608DF83F60F3E572
:1051D000FBF754F90EA906460120FFF715FD02461C
:1051E0003046FDF7B3FB4A450AD0052385F8583011
:1051F0008DF83F3001F09EFC00283FF4DDADD1E793
:105200009DF83F00D3E70EA8FDF7E2FB00287FF4EE
:1052100095AE95F85830DA1E012A0BD801F08AFCB9
:1052200020B901F09FFC00283FF4C6ADFF2385F8AC
:10523000583083E6022B7FF4BFADF2E70846FDF756
:105240009BFD00283FF4C4ADDFF8489010220021F8
:105250000EA802F046F8FBF719F90698FDF776FB61
:10526000FBF714F90598FDF771FBB14516D0452100
:105270000948FDF775FBC0E53B6A5B680493E5E709
:10528000CA910000ED91000017920000AAAAAA1A84
:1052900088EACD1F55555515239200004921049ADF
:1052A000AB48FDF75DFBE38A49210093637D227DD6
:1052B000A848FDF755FB4921A748FDF751FBA74B2F
:1052C000D3F874250F2A7FD1D3F86C250F2A7BD110
:1052D0000022A349C3F86825C3F86C154FF4F841C0
:1052E000C3F870159F49A04EC3F87415238904991B
:1052F00075689E4F0B443B60ED43672314464FF0A7
:10530000010A9346DFF8689205F06705C9F828336B
:10531000002D5ED1E420FBF701FA954BD3F8482726
:1053200022F00102C3F84827D3F8102522F0010229
:10533000C3F81025D3F8102522F00202C3F8102577
:1053400001225A669A663570EFF31182202383F3A7
:105350001288BFF36F8F8748818E01F00701022901
:1053600056D1C38E013B9BB2C386002B50D11C305B
:10537000FBF79AF8804B814A1B684FF47A70B3FBB5
:10538000F2F358437E4B002443F001039847672310
:10539000DFF8DC91DFF8ECA1C9F828330121A14046
:1053A00011F0670F5FFA84FB37D07368DB4303F0BB
:1053B00067030B4240F0A7805846FBF7F9FD5946BA
:1053C000714801F00EF92BE045217048FDF7C8FA4D
:1053D000FEE7B368E0B20AFA00F10B4013F0670F82
:1053E00013D00490FBF7E4FD7368DB4303F067031D
:1053F0000B420AD0049809EB0013C3F82CB5EB0755
:1054000003D50146604801F0ECF86D0801347FE7F0
:1054100082F31188BFF36F8FACE75846FBF7C8FDE6
:105420000134072CBAD14FF0FF3900244FF0010AA4
:10543000574EE420FBF772F9C6F80893C620FBF735
:105440006DF9C6F82CA0C6F85041D6F85031C6F810
:105450004C41D6F84C31C6F82441D6F82431C6F870
:10546000004506F578364FF48270C6F80893FBF7CE
:1054700055F9C6F82CA0C6F85041D6F85031C6F8F8
:105480004C41D6F84C31C6F82441D6F82431414B72
:10549000C6F80045C3F80893BFF36F8F72B63E4B52
:1054A00004F120020134102C43F82290F8D14FF07F
:1054B000FF3105F160020135102D43F82210F8D1BB
:1054C0000021364B3648C3F804140B46D0F8902020
:1054D000C2F30722424533DC83F30B8883F30A8847
:1054E0003A68126882F3088883F31488BFF36F8FD9
:1054F000BFF36F8F3B6858682A4B984745212A486D
:10550000FDF72EFAFEE7B3680B4013F0670F3FF488
:1055100053AF5846FBF74CFD002209EB0413C3F8C8
:105520002C25D9F8203319423FF446AFC9F8281387
:105530005AF82430002B3FF43FAF4AF824203BE7D1
:10554000C0F89880C0F8A01008F10108C2E700BFB9
:1055500046920000759200009392000000B0045043
:1055600005301F000530190068000020601D002074
:1055700000200E50A01D00201402002040420F0009
:105580005075000000210E506C000020B892000001
:1055900000600C5000E0105000E100E0002008E046
:1055A00000ED00E041000020EB920000F0B5038820
:1055B000C76803F44F42B2F5824F08BF1D4603F49B
:1055C000E0441F4B18BF002500201A46EDB21E789C
:1055D000AE4223D1D3E9026CD1F800E0B4F5804F9C
:1055E00008BF6646BEF1000F0BD1202E09D114234F
:1055F00003FB002253680B60137CABB96FF085008E
:10560000F0BDD3F804C0E64508D1202E02D06FF0DB
:105610008600F5E7142303FB0022EDE70130132891
:1056200003F11403D3D1F2E7422D06D1054B9F427B
:1056300003D003F20B139F42E9D10020E0E700BF43
:10564000208B0000000800062DE9F04107463025B8
:10565000514CDFF84881202D2E46A8BF2026FDF7AB
:1056600053FEFEF7FDFBBFF35F8FE368BFF35F8F71
:105670009B08013BBFF35F8FA360BFF35F8FBFF356
:105680005F8F00232364BFF35F8FBFF35F8FF1222F
:105690006264BFF35F8FBFF35F8F4FF4007262638A
:1056A000BFF35F8FBFF35F8FC4F80080BFF35F8FDE
:1056B00007E0FDF73DFE6FF03F052846BDE8F081AD
:1056C0000123BFF35F8F226BBFF35F8F5108C2F3DB
:1056D0004202052A5CD011F0060FF2D023BBBFF3C3
:1056E0005F8F6268BFF35F8F032AEAD92C4B2D4A84
:1056F000BFF35F8FD4F88010BFF35F8FBFF35F8F6E
:1057000043F8041BBFF35F8F9342F1D1FEF7A8FB70
:10571000BFF35F8F2368BFF35F8F43F00103BFF3D5
:105720005F8F2360BFF35F8F3246BFF35F8FA36845
:10573000BFF35F8F0133B6EB031FBAD8BFF35F8FA0
:105740006368BFF35F8FB6EB830FB9D8BFF35F8F8A
:10575000D4F88030BFF35F8F3946081D01F8013B54
:1057600081424FEA132302F1FF3208D0002AF5D11B
:10577000FDF7DEFDAD1B37447FF46DAF9DE7002ADA
:10578000F6D0BFF35F8FD4F88030BFF35F8FE4E7CC
:10579000FDF7CEFD63E700BF00108051010004005B
:1057A00010108051201080514FF4807313B50446BF
:1057B0000193FDF7A9FDFEF76BFB214B01AA1A60CF
:1057C000112220492048C3E9021240F6110103F1D9
:1057D00010025A601D4AC3E906011A6120321A629A
:1057E000212203F120015961012119485962C3E9BD
:1057F0000A02184AC2E9011020211460D160BFF3E7
:105800005F8F4FF0A3410B60BFF35F8FBFF35F8FDC
:105810000A61BFF35F8FBFF35F8F03234B63BFF357
:105820005F8FBFF35F8F8B63BFF35F8FFEF7B6FAB7
:10583000431C0446FAD0FDF77BFD204602B010BDA4
:10584000101E002004000020200000206002002024
:1058500010000020001E00202DE9F0411E46124BD2
:105860000C4603604FF4DE7105469046069FFEF736
:105870002BFBB8B9A8F1040804EB8606284658F8B3
:10588000042F54F8041B01F061FB58B9B442F5D160
:105890003946284601F089FB20B92846BDE8F04189
:1058A00001F09EBBBDE8F081EC8A00002DE9F043D9
:1058B0001D46324BADF50D7DCDE90701CDE905352E
:1058C000222120230DF13408CDE90913CDE90B3253
:1058D00007460323CDF800800AAA06A91DA8FFF7F2
:1058E000BBFF0446002844D1FE7FEB7FF609DB09AD
:1058F00023494FEA467603A818BF46F08046FEF7D4
:1059000069FBDDE90394A4BB324648461D491DAB43
:10591000FEF798FB044660BB202241461D9801F02B
:105920006BFC20221E9815A901F066FC1F9C20220A
:105930002046394601F060FC2022FB7FA91803F0C5
:105940007F03E377209801F057FC219C2022294611
:10595000204601F051FCEB7F484603F07F03E377DC
:1059600001F058FC4846FEF7E5FA04464846FEF7C3
:105970005BFB20460DF50D7DBDE8F0832C02002079
:105980000C8B00007477000002480B1A58425841F3
:10599000704700BF00080006034BC3F80005D3F8AA
:1059A0000024D207FBD5704700B004502DE9F04722
:1059B00088B004460D46164601F0A5FA78B9636929
:1059C0000090C3F3013262F305108DF8000010F06F
:1059D000300007D1A16889070FD06FF0860008B0AA
:1059E000BDE8F087102808D1BDF8023023F4F87321
:1059F00043F4A873ADF802306DE0E76871498F4257
:105A000047D1238803F44F41B1F5824F44D1D9B235
:105A1000422941D1A16811F4A05F04D123F0FF0312
:105A2000B3F5E24F38D00A219DF8023061F3030349
:105A30008DF8023000234FF0010A9E4619461F469A
:105A4000D4F808C0DFF8808158F8049B1CEA090FDD
:105A500008D00AFA07F343EA0E0303F07F0E01238E
:105A600041EA09010137072FEED12BB19DF8033030
:105A70006EF347038DF803303CEA01010CD16388D3
:105A8000FF2B11D00BD8802B2BD0C02B04D102239D
:105A90000BE0DBB2F82BCDD06FF085009FE7B3F5BC
:105AA000807FF9D1042300E003239DF8021063F303
:105AB00006118DF8021010B91CF0030F8DD1237957
:105AC000022B1BD00FD8012B87D1BDF8021063F336
:105AD000C811ADF80210B2B1032A7FF47EAF3B4F7C
:105AE00016E00123E1E7032B02D0FF2B7FF475AF13
:105AF0000221BDF8023061F3C8137BE7BDF8023024
:105B000043F4C07376E72388B3F5105FC4D1304FF8
:105B1000284601F0DFF910B96FF08A005FE7681CD2
:105B200001F0D8F90028F7D002212846FDF714FF2C
:105B300000287FF454AF009B044607930346DFF828
:105B40009490DFF894A006970DF10408C446BDF8C0
:105B500002203344C2F3C112059203F1100E6246D3
:105B600018685968083303C273459446F7D1012079
:105B70006119FFF711FFC9F8001516485146C9F819
:105B80000485FDF7ADFC01460020FFF705FF21B1BC
:105B900001F0B9F96FF0920021E71C21404601F0B5
:105BA00063F944B907F1100306934FF0FF33012462
:105BB00007931023CAE7BA20FDF712FD00283FF42F
:105BC0000EAFE7E7000800064C7700000000002059
:105BD0004000815100500450005104502DE9F04F15
:105BE0000D46002195B0DDE91E78164681460288F3
:105BF0009B46C8F800103960002B69D04168484CBA
:105C00000B0AB4EB112F24D102A9D0F814A0FDF790
:105C100003FC0446C8B9029B9B457AD35FFA8AFA13
:105C20002A4651464846FFF7C1FE044668B9214658
:105C300033465046CDE900B703AAFDF7B7FE044648
:105C400018B9BDF80E30C8F80030204615B0BDE8D0
:105C5000F08F002B60D122F0FF02B2F5E24F1DD190
:105C60004388BBF11F0F039353D903A9FFF79EFC91
:105C700004460028E9D10246691E731E1F3511F83B
:105C8000010F8D4203F8010F42EA0002F7D1FAB189
:105C9000039BC8F8003020233B60D6E7B2F5824F63
:105CA0003AD14288B0F800A002920AF44F42B2F50D
:105CB000824F18BF4FF0000A691E03A81F3511F864
:105CC000014F8D4200F8014B43EA0403F7D113B9A9
:105CD0006FF08604B9E7BBF11F0F1AD9484602A935
:105CE000FFF764FC04460028AFD15FFA8AF3122B59
:105CF000EED0302BECD0334603AA0BAE154603CDC5
:105D0000B542186059602A4603F10803F6D1029B98
:105D1000BFE76FF0890498E76FF0850495E700BF4F
:105D20004B4E800030BFFFF7FDBF00BFEFF3088090
:105D3000EFF3098101B57246FDF71CF901BD00BF03
:105D4000002080F31488BFF36F8F002080F30A884F
:105D500080F30B880F4880F30888FDF743FA002092
:105D60000D490860BFF34F8FFDF77AF9202080F3CB
:105D700011880A484FF40061401880F30988EFF356
:105D800014800221084380F31488BFF36F8FFDF75E
:105D900089F90000484F002094ED00E0484F0020B2
